{
  "contractName": "DStorage",
  "abi": [
    {
      "inputs": [
        {
          "internalType": "contract EthSwap",
          "name": "_token",
          "type": "address"
        }
      ],
      "payable": false,
      "stateMutability": "nonpayable",
      "type": "constructor"
    },
    {
      "anonymous": false,
      "inputs": [
        {
          "indexed": false,
          "internalType": "uint256",
          "name": "fileId",
          "type": "uint256"
        },
        {
          "indexed": false,
          "internalType": "string",
          "name": "fileHash",
          "type": "string"
        },
        {
          "indexed": false,
          "internalType": "uint256",
          "name": "fileSize",
          "type": "uint256"
        },
        {
          "indexed": false,
          "internalType": "string",
          "name": "fileType",
          "type": "string"
        },
        {
          "indexed": false,
          "internalType": "string",
          "name": "fileName",
          "type": "string"
        },
        {
          "indexed": false,
          "internalType": "string",
          "name": "fileDescription",
          "type": "string"
        },
        {
          "indexed": false,
          "internalType": "uint256",
          "name": "uploadTime",
          "type": "uint256"
        },
        {
          "indexed": false,
          "internalType": "address payable",
          "name": "uploader",
          "type": "address"
        },
        {
          "indexed": false,
          "internalType": "string",
          "name": "receivers",
          "type": "string"
        },
        {
          "indexed": false,
          "internalType": "bool",
          "name": "starred",
          "type": "bool"
        }
      ],
      "name": "FileUploaded",
      "type": "event"
    },
    {
      "constant": true,
      "inputs": [],
      "name": "deployer",
      "outputs": [
        {
          "internalType": "address",
          "name": "",
          "type": "address"
        }
      ],
      "payable": false,
      "stateMutability": "view",
      "type": "function"
    },
    {
      "constant": true,
      "inputs": [],
      "name": "ethSwap",
      "outputs": [
        {
          "internalType": "contract EthSwap",
          "name": "",
          "type": "address"
        }
      ],
      "payable": false,
      "stateMutability": "view",
      "type": "function"
    },
    {
      "constant": true,
      "inputs": [],
      "name": "fileCount",
      "outputs": [
        {
          "internalType": "uint256",
          "name": "",
          "type": "uint256"
        }
      ],
      "payable": false,
      "stateMutability": "view",
      "type": "function"
    },
    {
      "constant": true,
      "inputs": [
        {
          "internalType": "uint256",
          "name": "",
          "type": "uint256"
        }
      ],
      "name": "files",
      "outputs": [
        {
          "internalType": "uint256",
          "name": "fileId",
          "type": "uint256"
        },
        {
          "internalType": "string",
          "name": "fileHash",
          "type": "string"
        },
        {
          "internalType": "uint256",
          "name": "fileSize",
          "type": "uint256"
        },
        {
          "internalType": "string",
          "name": "fileType",
          "type": "string"
        },
        {
          "internalType": "string",
          "name": "fileName",
          "type": "string"
        },
        {
          "internalType": "string",
          "name": "fileDescription",
          "type": "string"
        },
        {
          "internalType": "uint256",
          "name": "uploadTime",
          "type": "uint256"
        },
        {
          "internalType": "address payable",
          "name": "uploader",
          "type": "address"
        },
        {
          "internalType": "string",
          "name": "receivers",
          "type": "string"
        },
        {
          "internalType": "bool",
          "name": "starred",
          "type": "bool"
        }
      ],
      "payable": false,
      "stateMutability": "view",
      "type": "function"
    },
    {
      "constant": true,
      "inputs": [],
      "name": "folderCount",
      "outputs": [
        {
          "internalType": "uint256",
          "name": "",
          "type": "uint256"
        }
      ],
      "payable": false,
      "stateMutability": "view",
      "type": "function"
    },
    {
      "constant": true,
      "inputs": [
        {
          "internalType": "uint256",
          "name": "",
          "type": "uint256"
        }
      ],
      "name": "folders",
      "outputs": [
        {
          "internalType": "uint256",
          "name": "folderId",
          "type": "uint256"
        },
        {
          "internalType": "string",
          "name": "name",
          "type": "string"
        },
        {
          "internalType": "string",
          "name": "data",
          "type": "string"
        },
        {
          "internalType": "address payable",
          "name": "uploader",
          "type": "address"
        },
        {
          "internalType": "string",
          "name": "receivers",
          "type": "string"
        }
      ],
      "payable": false,
      "stateMutability": "view",
      "type": "function"
    },
    {
      "constant": true,
      "inputs": [],
      "name": "name",
      "outputs": [
        {
          "internalType": "string",
          "name": "",
          "type": "string"
        }
      ],
      "payable": false,
      "stateMutability": "view",
      "type": "function"
    },
    {
      "constant": true,
      "inputs": [
        {
          "internalType": "address",
          "name": "",
          "type": "address"
        }
      ],
      "name": "totalSize",
      "outputs": [
        {
          "internalType": "uint256",
          "name": "",
          "type": "uint256"
        }
      ],
      "payable": false,
      "stateMutability": "view",
      "type": "function"
    },
    {
      "constant": true,
      "inputs": [],
      "name": "trashCount",
      "outputs": [
        {
          "internalType": "uint256",
          "name": "",
          "type": "uint256"
        }
      ],
      "payable": false,
      "stateMutability": "view",
      "type": "function"
    },
    {
      "constant": true,
      "inputs": [
        {
          "internalType": "uint256",
          "name": "",
          "type": "uint256"
        }
      ],
      "name": "trashFiles",
      "outputs": [
        {
          "internalType": "uint256",
          "name": "fileId",
          "type": "uint256"
        },
        {
          "internalType": "string",
          "name": "fileHash",
          "type": "string"
        },
        {
          "internalType": "uint256",
          "name": "fileSize",
          "type": "uint256"
        },
        {
          "internalType": "string",
          "name": "fileType",
          "type": "string"
        },
        {
          "internalType": "string",
          "name": "fileName",
          "type": "string"
        },
        {
          "internalType": "string",
          "name": "fileDescription",
          "type": "string"
        },
        {
          "internalType": "uint256",
          "name": "uploadTime",
          "type": "uint256"
        },
        {
          "internalType": "address payable",
          "name": "uploader",
          "type": "address"
        },
        {
          "internalType": "string",
          "name": "receivers",
          "type": "string"
        },
        {
          "internalType": "bool",
          "name": "starred",
          "type": "bool"
        }
      ],
      "payable": false,
      "stateMutability": "view",
      "type": "function"
    },
    {
      "constant": false,
      "inputs": [
        {
          "internalType": "string",
          "name": "_fileHash",
          "type": "string"
        },
        {
          "internalType": "uint256",
          "name": "_fileSize",
          "type": "uint256"
        },
        {
          "internalType": "string",
          "name": "_fileType",
          "type": "string"
        },
        {
          "internalType": "string",
          "name": "_fileName",
          "type": "string"
        },
        {
          "internalType": "string",
          "name": "_fileDescription",
          "type": "string"
        }
      ],
      "name": "uploadFile",
      "outputs": [],
      "payable": false,
      "stateMutability": "nonpayable",
      "type": "function"
    },
    {
      "constant": false,
      "inputs": [
        {
          "internalType": "uint256",
          "name": "fileId",
          "type": "uint256"
        },
        {
          "internalType": "string",
          "name": "_fileHash",
          "type": "string"
        }
      ],
      "name": "starAFile",
      "outputs": [],
      "payable": false,
      "stateMutability": "nonpayable",
      "type": "function"
    },
    {
      "constant": false,
      "inputs": [
        {
          "internalType": "uint256",
          "name": "fileId",
          "type": "uint256"
        },
        {
          "internalType": "string",
          "name": "_fileHash",
          "type": "string"
        }
      ],
      "name": "unstarAFile",
      "outputs": [],
      "payable": false,
      "stateMutability": "nonpayable",
      "type": "function"
    },
    {
      "constant": false,
      "inputs": [
        {
          "internalType": "uint256",
          "name": "fileId",
          "type": "uint256"
        },
        {
          "internalType": "string",
          "name": "_fileHash",
          "type": "string"
        }
      ],
      "name": "deleteFile",
      "outputs": [],
      "payable": false,
      "stateMutability": "nonpayable",
      "type": "function"
    },
    {
      "constant": false,
      "inputs": [
        {
          "internalType": "uint256",
          "name": "fileId",
          "type": "uint256"
        },
        {
          "internalType": "string",
          "name": "_fileHash",
          "type": "string"
        }
      ],
      "name": "restoreFile",
      "outputs": [],
      "payable": false,
      "stateMutability": "nonpayable",
      "type": "function"
    },
    {
      "constant": false,
      "inputs": [
        {
          "internalType": "uint256",
          "name": "fileId",
          "type": "uint256"
        },
        {
          "internalType": "string",
          "name": "_fileHash",
          "type": "string"
        }
      ],
      "name": "deleteFileForever",
      "outputs": [],
      "payable": false,
      "stateMutability": "nonpayable",
      "type": "function"
    },
    {
      "constant": false,
      "inputs": [
        {
          "internalType": "uint256[]",
          "name": "fileIds",
          "type": "uint256[]"
        }
      ],
      "name": "emptyTrash",
      "outputs": [],
      "payable": false,
      "stateMutability": "nonpayable",
      "type": "function"
    },
    {
      "constant": false,
      "inputs": [
        {
          "internalType": "string",
          "name": "_name",
          "type": "string"
        }
      ],
      "name": "addFolder",
      "outputs": [],
      "payable": false,
      "stateMutability": "nonpayable",
      "type": "function"
    },
    {
      "constant": false,
      "inputs": [
        {
          "internalType": "uint256",
          "name": "folderId",
          "type": "uint256"
        },
        {
          "internalType": "string",
          "name": "_data",
          "type": "string"
        }
      ],
      "name": "updateFiles",
      "outputs": [],
      "payable": false,
      "stateMutability": "nonpayable",
      "type": "function"
    },
    {
      "constant": false,
      "inputs": [
        {
          "internalType": "uint256",
          "name": "folderId",
          "type": "uint256"
        }
      ],
      "name": "remove",
      "outputs": [],
      "payable": false,
      "stateMutability": "nonpayable",
      "type": "function"
    },
    {
      "constant": false,
      "inputs": [
        {
          "internalType": "uint256",
          "name": "fileId",
          "type": "uint256"
        },
        {
          "internalType": "string",
          "name": "_fileHash",
          "type": "string"
        },
        {
          "internalType": "string",
          "name": "_receivers",
          "type": "string"
        }
      ],
      "name": "shareAFile",
      "outputs": [],
      "payable": false,
      "stateMutability": "nonpayable",
      "type": "function"
    },
    {
      "constant": false,
      "inputs": [
        {
          "internalType": "uint256",
          "name": "folderId",
          "type": "uint256"
        },
        {
          "internalType": "string",
          "name": "_receivers",
          "type": "string"
        }
      ],
      "name": "shareAFolder",
      "outputs": [],
      "payable": false,
      "stateMutability": "nonpayable",
      "type": "function"
    },
    {
      "constant": false,
      "inputs": [
        {
          "internalType": "uint256",
          "name": "amt",
          "type": "uint256"
        },
        {
          "internalType": "uint256",
          "name": "tokenAmt",
          "type": "uint256"
        }
      ],
      "name": "buyStorage",
      "outputs": [],
      "payable": false,
      "stateMutability": "nonpayable",
      "type": "function"
    },
    {
      "constant": false,
      "inputs": [
        {
          "internalType": "uint256",
          "name": "tokenAmt",
          "type": "uint256"
        },
        {
          "internalType": "address",
          "name": "receiver",
          "type": "address"
        }
      ],
      "name": "withdrawTokens",
      "outputs": [],
      "payable": false,
      "stateMutability": "nonpayable",
      "type": "function"
    }
  ],
  "bytecode": "0x60806040526040518060400160405280600881526020017f4453746f7261676500000000000000000000000000000000000000000000000081525060009080519060200190620000519291906200012e565b506000600355600060045560006005553480156200006e57600080fd5b506040516200349538038062003495833981810160405260208110156200009457600080fd5b810190808051906020019092919050505080600160006101000a81548173ffffffffffffffffffffffffffffffffffffffff021916908373ffffffffffffffffffffffffffffffffffffffff16021790555033600260006101000a81548173ffffffffffffffffffffffffffffffffffffffff021916908373ffffffffffffffffffffffffffffffffffffffff16021790555050620001dd565b828054600181600116156101000203166002900490600052602060002090601f016020900481019282601f106200017157805160ff1916838001178555620001a2565b82800160010185558215620001a2579182015b82811115620001a157825182559160200191906001019062000184565b5b509050620001b19190620001b5565b5090565b620001da91905b80821115620001d6576000816000905550600101620001bc565b5090565b90565b6132a880620001ed6000396000f3fe608060405234801561001057600080fd5b50600436106101585760003560e01c8063536722e7116100c3578063d5d7cbe51161007c578063d5d7cbe514610de3578063d5f3948814610e9b578063e82d9d3314610ee5578063ee48bf961461116f578063f4c714b414611234578063f4e28315146114de57610158565b8063536722e71461085b5780635ef0ac2e14610a145780637a0a044c14610acf57806385ac4f3e14610b94578063c29082c914610c59578063c343d0dd14610d1e57610158565b8063373ddf4d11610115578063373ddf4d146104c1578063398d92bb1461076b5780633b962c53146107b957806343953519146107f157806344bad3491461080f5780634cc822151461082d57610158565b806306fdde031461015d57806310e72591146101e05780632705b8ad1461033c57806330a67f1f1461039457806330f60c02146104595780633260f1a1146104a3575b600080fd5b6101656115a3565b6040518080602001828103825283818151815260200191508051906020019080838360005b838110156101a557808201518184015260208101905061018a565b50505050905090810190601f1680156101d25780820380516001836020036101000a031916815260200191505b509250505060405180910390f35b61033a600480360360608110156101f657600080fd5b81019080803590602001909291908035906020019064010000000081111561021d57600080fd5b82018360208201111561022f57600080fd5b8035906020019184600183028401116401000000008311171561025157600080fd5b91908080601f016020809104026020016040519081016040528093929190818152602001838380828437600081840152601f19601f820116905080830192505050505050509192919290803590602001906401000000008111156102b457600080fd5b8201836020820111156102c657600080fd5b803590602001918460018302840111640100000000831117156102e857600080fd5b91908080601f016020809104026020016040519081016040528093929190818152602001838380828437600081840152601f19601f820116905080830192505050505050509192919290505050611641565b005b61037e6004803603602081101561035257600080fd5b81019080803573ffffffffffffffffffffffffffffffffffffffff16906020019092919050505061167f565b6040518082815260200191505060405180910390f35b610457600480360360408110156103aa57600080fd5b8101908080359060200190929190803590602001906401000000008111156103d157600080fd5b8201836020820111156103e357600080fd5b8035906020019184600183028401116401000000008311171561040557600080fd5b91908080601f016020809104026020016040519081016040528093929190818152602001838380828437600081840152601f19601f820116905080830192505050505050509192919290505050611697565b005b610461611936565b604051808273ffffffffffffffffffffffffffffffffffffffff1673ffffffffffffffffffffffffffffffffffffffff16815260200191505060405180910390f35b6104ab61195c565b6040518082815260200191505060405180910390f35b6104ed600480360360208110156104d757600080fd5b8101908080359060200190929190505050611962565b604051808b8152602001806020018a81526020018060200180602001806020018981526020018873ffffffffffffffffffffffffffffffffffffffff1673ffffffffffffffffffffffffffffffffffffffff168152602001806020018715151515815260200186810386528f818151815260200191508051906020019080838360005b8381101561058b578082015181840152602081019050610570565b50505050905090810190601f1680156105b85780820380516001836020036101000a031916815260200191505b5086810385528d818151815260200191508051906020019080838360005b838110156105f15780820151818401526020810190506105d6565b50505050905090810190601f16801561061e5780820380516001836020036101000a031916815260200191505b5086810384528c818151815260200191508051906020019080838360005b8381101561065757808201518184015260208101905061063c565b50505050905090810190601f1680156106845780820380516001836020036101000a031916815260200191505b5086810383528b818151815260200191508051906020019080838360005b838110156106bd5780820151818401526020810190506106a2565b50505050905090810190601f1680156106ea5780820380516001836020036101000a031916815260200191505b50868103825288818151815260200191508051906020019080838360005b83811015610723578082015181840152602081019050610708565b50505050905090810190601f1680156107505780820380516001836020036101000a031916815260200191505b509f5050505050505050505050505050505060405180910390f35b6107b76004803603604081101561078157600080fd5b8101908080359060200190929190803573ffffffffffffffffffffffffffffffffffffffff169060200190929190505050611cdb565b005b6107ef600480360360408110156107cf57600080fd5b810190808035906020019092919080359060200190929190505050611dfa565b005b6107f9611f44565b6040518082815260200191505060405180910390f35b610817611f4a565b6040518082815260200191505060405180910390f35b6108596004803603602081101561084357600080fd5b8101908080359060200190929190505050611f50565b005b6108876004803603602081101561087157600080fd5b8101908080359060200190929190505050611fc8565b6040518086815260200180602001806020018573ffffffffffffffffffffffffffffffffffffffff1673ffffffffffffffffffffffffffffffffffffffff16815260200180602001848103845288818151815260200191508051906020019080838360005b838110156109075780820151818401526020810190506108ec565b50505050905090810190601f1680156109345780820380516001836020036101000a031916815260200191505b50848103835287818151815260200191508051906020019080838360005b8381101561096d578082015181840152602081019050610952565b50505050905090810190601f16801561099a5780820380516001836020036101000a031916815260200191505b50848103825285818151815260200191508051906020019080838360005b838110156109d35780820151818401526020810190506109b8565b50505050905090810190601f168015610a005780820380516001836020036101000a031916815260200191505b509850505050505050505060405180910390f35b610acd60048036036020811015610a2a57600080fd5b8101908080359060200190640100000000811115610a4757600080fd5b820183602082011115610a5957600080fd5b80359060200191846001830284011164010000000083111715610a7b57600080fd5b91908080601f016020809104026020016040519081016040528093929190818152602001838380828437600081840152601f19601f8201169050808301925050505050505091929192905050506121e6565b005b610b9260048036036040811015610ae557600080fd5b810190808035906020019092919080359060200190640100000000811115610b0c57600080fd5b820183602082011115610b1e57600080fd5b80359060200191846001830284011164010000000083111715610b4057600080fd5b91908080601f016020809104026020016040519081016040528093929190818152602001838380828437600081840152601f19601f820116905080830192505050505050509192919290505050612318565b005b610c5760048036036040811015610baa57600080fd5b810190808035906020019092919080359060200190640100000000811115610bd157600080fd5b820183602082011115610be357600080fd5b80359060200191846001830284011164010000000083111715610c0557600080fd5b91908080601f016020809104026020016040519081016040528093929190818152602001838380828437600081840152601f19601f820116905080830192505050505050509192919290505050612359565b005b610d1c60048036036040811015610c6f57600080fd5b810190808035906020019092919080359060200190640100000000811115610c9657600080fd5b820183602082011115610ca857600080fd5b80359060200191846001830284011164010000000083111715610cca57600080fd5b91908080601f016020809104026020016040519081016040528093929190818152602001838380828437600081840152601f19601f820116905080830192505050505050509192919290505050612424565b005b610de160048036036040811015610d3457600080fd5b810190808035906020019092919080359060200190640100000000811115610d5b57600080fd5b820183602082011115610d6d57600080fd5b80359060200191846001830284011164010000000083111715610d8f57600080fd5b91908080601f016020809104026020016040519081016040528093929190818152602001838380828437600081840152601f19601f820116905080830192505050505050509192919290505050612453565b005b610e9960048036036020811015610df957600080fd5b8101908080359060200190640100000000811115610e1657600080fd5b820183602082011115610e2857600080fd5b80359060200191846020830284011164010000000083111715610e4a57600080fd5b919080806020026020016040519081016040528093929190818152602001838360200280828437600081840152601f19601f8201169050808301925050505050505091929192905050506126f2565b005b610ea36127e6565b604051808273ffffffffffffffffffffffffffffffffffffffff1673ffffffffffffffffffffffffffffffffffffffff16815260200191505060405180910390f35b61116d600480360360a0811015610efb57600080fd5b8101908080359060200190640100000000811115610f1857600080fd5b820183602082011115610f2a57600080fd5b80359060200191846001830284011164010000000083111715610f4c57600080fd5b91908080601f016020809104026020016040519081016040528093929190818152602001838380828437600081840152601f19601f8201169050808301925050505050505091929192908035906020019092919080359060200190640100000000811115610fb957600080fd5b820183602082011115610fcb57600080fd5b80359060200191846001830284011164010000000083111715610fed57600080fd5b91908080601f016020809104026020016040519081016040528093929190818152602001838380828437600081840152601f19601f8201169050808301925050505050505091929192908035906020019064010000000081111561105057600080fd5b82018360208201111561106257600080fd5b8035906020019184600183028401116401000000008311171561108457600080fd5b91908080601f016020809104026020016040519081016040528093929190818152602001838380828437600081840152601f19601f820116905080830192505050505050509192919290803590602001906401000000008111156110e757600080fd5b8201836020820111156110f957600080fd5b8035906020019184600183028401116401000000008311171561111b57600080fd5b91908080601f016020809104026020016040519081016040528093929190818152602001838380828437600081840152601f19601f82011690508083019250505050505050919291929050505061280c565b005b6112326004803603604081101561118557600080fd5b8101908080359060200190929190803590602001906401000000008111156111ac57600080fd5b8201836020820111156111be57600080fd5b803590602001918460018302840111640100000000831117156111e057600080fd5b91908080601f016020809104026020016040519081016040528093929190818152602001838380828437600081840152601f19601f820116905080830192505050505050509192919290505050612c96565b005b6112606004803603602081101561124a57600080fd5b8101908080359060200190929190505050612cc5565b604051808b8152602001806020018a81526020018060200180602001806020018981526020018873ffffffffffffffffffffffffffffffffffffffff1673ffffffffffffffffffffffffffffffffffffffff168152602001806020018715151515815260200186810386528f818151815260200191508051906020019080838360005b838110156112fe5780820151818401526020810190506112e3565b50505050905090810190601f16801561132b5780820380516001836020036101000a031916815260200191505b5086810385528d818151815260200191508051906020019080838360005b83811015611364578082015181840152602081019050611349565b50505050905090810190601f1680156113915780820380516001836020036101000a031916815260200191505b5086810384528c818151815260200191508051906020019080838360005b838110156113ca5780820151818401526020810190506113af565b50505050905090810190601f1680156113f75780820380516001836020036101000a031916815260200191505b5086810383528b818151815260200191508051906020019080838360005b83811015611430578082015181840152602081019050611415565b50505050905090810190601f16801561145d5780820380516001836020036101000a031916815260200191505b50868103825288818151815260200191508051906020019080838360005b8381101561149657808201518184015260208101905061147b565b50505050905090810190601f1680156114c35780820380516001836020036101000a031916815260200191505b509f5050505050505050505050505050505060405180910390f35b6115a1600480360360408110156114f457600080fd5b81019080803590602001909291908035906020019064010000000081111561151b57600080fd5b82018360208201111561152d57600080fd5b8035906020019184600183028401116401000000008311171561154f57600080fd5b91908080601f016020809104026020016040519081016040528093929190818152602001838380828437600081840152601f19601f82011690508083019250505050505050919291929050505061303e565b005b60008054600181600116156101000203166002900480601f0160208091040260200160405190810160405280929190818152602001828054600181600116156101000203166002900480156116395780601f1061160e57610100808354040283529160200191611639565b820191906000526020600020905b81548152906001019060200180831161161c57829003601f168201915b505050505081565b600082511161164f57600080fd5b8060066000858152602001908152602001600020600801908051906020019061167992919061307f565b50505050565b60096020528060005260406000206000915090505481565b60008151116116a557600080fd5b600460008154809291906001019190505550600454600660008481526020019081526020016000206000018190555060066000838152602001908152602001600020600860006004548152602001908152602001600020600082015481600001556001820181600101908054600181600116156101000203166002900461172d9291906130ff565b50600282015481600201556003820181600301908054600181600116156101000203166002900461175f9291906130ff565b50600482018160040190805460018160011615610100020316600290046117879291906130ff565b50600582018160050190805460018160011615610100020316600290046117af9291906130ff565b50600682015481600601556007820160009054906101000a900473ffffffffffffffffffffffffffffffffffffffff168160070160006101000a81548173ffffffffffffffffffffffffffffffffffffffff021916908373ffffffffffffffffffffffffffffffffffffffff160217905550600882018160080190805460018160011615610100020316600290046118489291906130ff565b506009820160009054906101000a900460ff168160090160006101000a81548160ff021916908315150217905550905050600660008381526020019081526020016000206000808201600090556001820160006118a59190613186565b60028201600090556003820160006118bd9190613186565b6004820160006118cd9190613186565b6005820160006118dd9190613186565b60068201600090556007820160006101000a81549073ffffffffffffffffffffffffffffffffffffffff021916905560088201600061191c9190613186565b6009820160006101000a81549060ff021916905550505050565b600160009054906101000a900473ffffffffffffffffffffffffffffffffffffffff1681565b60045481565b6008602052806000526040600020600091509050806000015490806001018054600181600116156101000203166002900480601f016020809104026020016040519081016040528092919081815260200182805460018160011615610100020316600290048015611a145780601f106119e957610100808354040283529160200191611a14565b820191906000526020600020905b8154815290600101906020018083116119f757829003601f168201915b505050505090806002015490806003018054600181600116156101000203166002900480601f016020809104026020016040519081016040528092919081815260200182805460018160011615610100020316600290048015611ab85780601f10611a8d57610100808354040283529160200191611ab8565b820191906000526020600020905b815481529060010190602001808311611a9b57829003601f168201915b505050505090806004018054600181600116156101000203166002900480601f016020809104026020016040519081016040528092919081815260200182805460018160011615610100020316600290048015611b565780601f10611b2b57610100808354040283529160200191611b56565b820191906000526020600020905b815481529060010190602001808311611b3957829003601f168201915b505050505090806005018054600181600116156101000203166002900480601f016020809104026020016040519081016040528092919081815260200182805460018160011615610100020316600290048015611bf45780601f10611bc957610100808354040283529160200191611bf4565b820191906000526020600020905b815481529060010190602001808311611bd757829003601f168201915b5050505050908060060154908060070160009054906101000a900473ffffffffffffffffffffffffffffffffffffffff1690806008018054600181600116156101000203166002900480601f016020809104026020016040519081016040528092919081815260200182805460018160011615610100020316600290048015611cbe5780601f10611c9357610100808354040283529160200191611cbe565b820191906000526020600020905b815481529060010190602001808311611ca157829003601f168201915b5050505050908060090160009054906101000a900460ff1690508a565b600260009054906101000a900473ffffffffffffffffffffffffffffffffffffffff1673ffffffffffffffffffffffffffffffffffffffff163373ffffffffffffffffffffffffffffffffffffffff1614611d3557600080fd5b600160009054906101000a900473ffffffffffffffffffffffffffffffffffffffff1673ffffffffffffffffffffffffffffffffffffffff1663c548bce883836040518363ffffffff1660e01b8152600401808381526020018273ffffffffffffffffffffffffffffffffffffffff1673ffffffffffffffffffffffffffffffffffffffff16815260200192505050600060405180830381600087803b158015611dde57600080fd5b505af1158015611df2573d6000803e3d6000fd5b505050505050565b600160009054906101000a900473ffffffffffffffffffffffffffffffffffffffff1673ffffffffffffffffffffffffffffffffffffffff1663fe715e6582336040518363ffffffff1660e01b8152600401808381526020018273ffffffffffffffffffffffffffffffffffffffff1673ffffffffffffffffffffffffffffffffffffffff16815260200192505050600060405180830381600087803b158015611ea357600080fd5b505af1158015611eb7573d6000803e3d6000fd5b5050505081600960003373ffffffffffffffffffffffffffffffffffffffff1673ffffffffffffffffffffffffffffffffffffffff1681526020019081526020016000205401600960003373ffffffffffffffffffffffffffffffffffffffff1673ffffffffffffffffffffffffffffffffffffffff168152602001908152602001600020819055505050565b60035481565b60055481565b60076000828152602001908152602001600020600080820160009055600182016000611f7c9190613186565b600282016000611f8c9190613186565b6003820160006101000a81549073ffffffffffffffffffffffffffffffffffffffff0219169055600482016000611fc39190613186565b505050565b6007602052806000526040600020600091509050806000015490806001018054600181600116156101000203166002900480601f01602080910402602001604051908101604052809291908181526020018280546001816001161561010002031660029004801561207a5780601f1061204f5761010080835404028352916020019161207a565b820191906000526020600020905b81548152906001019060200180831161205d57829003601f168201915b505050505090806002018054600181600116156101000203166002900480601f0160208091040260200160405190810160405280929190818152602001828054600181600116156101000203166002900480156121185780601f106120ed57610100808354040283529160200191612118565b820191906000526020600020905b8154815290600101906020018083116120fb57829003601f168201915b5050505050908060030160009054906101000a900473ffffffffffffffffffffffffffffffffffffffff1690806004018054600181600116156101000203166002900480601f0160208091040260200160405190810160405280929190818152602001828054600181600116156101000203166002900480156121dc5780601f106121b1576101008083540402835291602001916121dc565b820191906000526020600020905b8154815290600101906020018083116121bf57829003601f168201915b5050505050905085565b6005600081548092919060010191905055506040518060a0016040528060055481526020018281526020016040518060200160405280600081525081526020013373ffffffffffffffffffffffffffffffffffffffff168152602001604051806020016040528060008152508152506007600060055481526020019081526020016000206000820151816000015560208201518160010190805190602001906122909291906131ce565b5060408201518160020190805190602001906122ad9291906131ce565b5060608201518160030160006101000a81548173ffffffffffffffffffffffffffffffffffffffff021916908373ffffffffffffffffffffffffffffffffffffffff16021790555060808201518160040190805190602001906123119291906131ce565b5090505050565b600081511161232657600080fd5b60006006600084815260200190815260200160002060090160006101000a81548160ff0219169083151502179055505050565b600081511161236757600080fd5b600860008381526020019081526020016000206000808201600090556001820160006123939190613186565b60028201600090556003820160006123ab9190613186565b6004820160006123bb9190613186565b6005820160006123cb9190613186565b60068201600090556007820160006101000a81549073ffffffffffffffffffffffffffffffffffffffff021916905560088201600061240a9190613186565b6009820160006101000a81549060ff021916905550505050565b8060076000848152602001908152602001600020600201908051906020019061244e92919061307f565b505050565b600081511161246157600080fd5b60036000815480929190600101919050555060035460086000848152602001908152602001600020600001819055506008600083815260200190815260200160002060066000600354815260200190815260200160002060008201548160000155600182018160010190805460018160011615610100020316600290046124e99291906130ff565b50600282015481600201556003820181600301908054600181600116156101000203166002900461251b9291906130ff565b50600482018160040190805460018160011615610100020316600290046125439291906130ff565b506005820181600501908054600181600116156101000203166002900461256b9291906130ff565b50600682015481600601556007820160009054906101000a900473ffffffffffffffffffffffffffffffffffffffff168160070160006101000a81548173ffffffffffffffffffffffffffffffffffffffff021916908373ffffffffffffffffffffffffffffffffffffffff160217905550600882018160080190805460018160011615610100020316600290046126049291906130ff565b506009820160009054906101000a900460ff168160090160006101000a81548160ff021916908315150217905550905050600860008381526020019081526020016000206000808201600090556001820160006126619190613186565b60028201600090556003820160006126799190613186565b6004820160006126899190613186565b6005820160006126999190613186565b60068201600090556007820160006101000a81549073ffffffffffffffffffffffffffffffffffffffff02191690556008820160006126d89190613186565b6009820160006101000a81549060ff021916905550505050565b60008090505b81518110156127da576008600083838151811061271157fe5b602002602001015181526020019081526020016000206000808201600090556001820160006127409190613186565b60028201600090556003820160006127589190613186565b6004820160006127689190613186565b6005820160006127789190613186565b60068201600090556007820160006101000a81549073ffffffffffffffffffffffffffffffffffffffff02191690556008820160006127b79190613186565b6009820160006101000a81549060ff0219169055505080806001019150506126f8565b50600060048190555050565b600260009054906101000a900473ffffffffffffffffffffffffffffffffffffffff1681565b600085511161281a57600080fd5b600083511161282857600080fd5b600081511161283657600080fd5b600082511161284457600080fd5b600073ffffffffffffffffffffffffffffffffffffffff163373ffffffffffffffffffffffffffffffffffffffff16141561287e57600080fd5b6000841161288b57600080fd5b60036000815480929190600101919050555060405180610140016040528060035481526020018681526020018581526020018481526020018381526020018281526020014281526020013373ffffffffffffffffffffffffffffffffffffffff168152602001604051806020016040528060008152508152602001600015158152506006600060035481526020019081526020016000206000820151816000015560208201518160010190805190602001906129489291906131ce565b5060408201518160020155606082015181600301908051906020019061296f9291906131ce565b50608082015181600401908051906020019061298c9291906131ce565b5060a08201518160050190805190602001906129a99291906131ce565b5060c0820151816006015560e08201518160070160006101000a81548173ffffffffffffffffffffffffffffffffffffffff021916908373ffffffffffffffffffffffffffffffffffffffff160217905550610100820151816008019080519060200190612a189291906131ce565b506101208201518160090160006101000a81548160ff0219169083151502179055509050507f1b491f28c37a9ffd4d706279ccf7d75121a6ba53cad2dc6475e951a1431f1396600354868686868642336000604051808a8152602001806020018981526020018060200180602001806020018881526020018773ffffffffffffffffffffffffffffffffffffffff1673ffffffffffffffffffffffffffffffffffffffff168152602001806020018715151515815260200186810386528e818151815260200191508051906020019080838360005b83811015612b08578082015181840152602081019050612aed565b50505050905090810190601f168015612b355780820380516001836020036101000a031916815260200191505b5086810385528c818151815260200191508051906020019080838360005b83811015612b6e578082015181840152602081019050612b53565b50505050905090810190601f168015612b9b5780820380516001836020036101000a031916815260200191505b5086810384528b818151815260200191508051906020019080838360005b83811015612bd4578082015181840152602081019050612bb9565b50505050905090810190601f168015612c015780820380516001836020036101000a031916815260200191505b5086810383528a818151815260200191508051906020019080838360005b83811015612c3a578082015181840152602081019050612c1f565b50505050905090810190601f168015612c675780820380516001836020036101000a031916815260200191505b508681038252600081526020016020019e50505050505050505050505050505060405180910390a15050505050565b80600760008481526020019081526020016000206004019080519060200190612cc092919061307f565b505050565b6006602052806000526040600020600091509050806000015490806001018054600181600116156101000203166002900480601f016020809104026020016040519081016040528092919081815260200182805460018160011615610100020316600290048015612d775780601f10612d4c57610100808354040283529160200191612d77565b820191906000526020600020905b815481529060010190602001808311612d5a57829003601f168201915b505050505090806002015490806003018054600181600116156101000203166002900480601f016020809104026020016040519081016040528092919081815260200182805460018160011615610100020316600290048015612e1b5780601f10612df057610100808354040283529160200191612e1b565b820191906000526020600020905b815481529060010190602001808311612dfe57829003601f168201915b505050505090806004018054600181600116156101000203166002900480601f016020809104026020016040519081016040528092919081815260200182805460018160011615610100020316600290048015612eb95780601f10612e8e57610100808354040283529160200191612eb9565b820191906000526020600020905b815481529060010190602001808311612e9c57829003601f168201915b505050505090806005018054600181600116156101000203166002900480601f016020809104026020016040519081016040528092919081815260200182805460018160011615610100020316600290048015612f575780601f10612f2c57610100808354040283529160200191612f57565b820191906000526020600020905b815481529060010190602001808311612f3a57829003601f168201915b5050505050908060060154908060070160009054906101000a900473ffffffffffffffffffffffffffffffffffffffff1690806008018054600181600116156101000203166002900480601f0160208091040260200160405190810160405280929190818152602001828054600181600116156101000203166002900480156130215780601f10612ff657610100808354040283529160200191613021565b820191906000526020600020905b81548152906001019060200180831161300457829003601f168201915b5050505050908060090160009054906101000a900460ff1690508a565b600081511161304c57600080fd5b60016006600084815260200190815260200160002060090160006101000a81548160ff0219169083151502179055505050565b828054600181600116156101000203166002900490600052602060002090601f016020900481019282601f106130c057805160ff19168380011785556130ee565b828001600101855582156130ee579182015b828111156130ed5782518255916020019190600101906130d2565b5b5090506130fb919061324e565b5090565b828054600181600116156101000203166002900490600052602060002090601f016020900481019282601f106131385780548555613175565b8280016001018555821561317557600052602060002091601f016020900482015b82811115613174578254825591600101919060010190613159565b5b509050613182919061324e565b5090565b50805460018160011615610100020316600290046000825580601f106131ac57506131cb565b601f0160209004906000526020600020908101906131ca919061324e565b5b50565b828054600181600116156101000203166002900490600052602060002090601f016020900481019282601f1061320f57805160ff191683800117855561323d565b8280016001018555821561323d579182015b8281111561323c578251825591602001919060010190613221565b5b50905061324a919061324e565b5090565b61327091905b8082111561326c576000816000905550600101613254565b5090565b9056fea265627a7a72315820683e4983ec467849393a2b4e8112b1124087e4dd48a402dfd7ade1ceff2e211964736f6c63430005100032",
  "source": "pragma solidity ^0.5.0;\n\nimport \"./EthSwap.sol\";\n\ncontract DStorage {\n  string public name = 'DStorage';\n  EthSwap public ethSwap;\n\n  address public deployer;\n\n  uint public fileCount = 0;\n  uint public trashCount = 0;\n  uint public folderCount = 0;\n\n  mapping(uint => File) public files;\n  mapping(uint => Folder) public folders;\n\n  mapping(uint => File) public trashFiles;\n\n  mapping(address => uint) public totalSize;\n  \n  struct File {\n    uint fileId;\n    string fileHash;\n    uint fileSize;\n    string fileType;\n    string fileName;\n    string fileDescription;\n    uint uploadTime;\n    address payable uploader;\n    string receivers;\n    bool starred;\n  }\n\n  struct Folder {\n    uint folderId;\n    string name;      // name of node\n    string data;    // list of nodes data(Files)\n    address payable uploader;\n    string receivers;\n  }\n\n  // struct Folder {\n  //   bytes32 name;      // name of node\n  //   bytes32 parent;    // parent nodes path\n  //   uint[] data;    // list of nodes data(Files)\n  //   bytes32[] folders; // list of linked folder's paths\n  //  }\n\n  event FileUploaded(\n    uint fileId,\n    string fileHash,\n    uint fileSize,\n    string fileType,\n    string fileName, \n    string fileDescription,\n    uint uploadTime,\n    address payable uploader,\n    string receivers,\n    bool starred\n  );\n\n  constructor(EthSwap _token) public {\n    ethSwap = _token;\n    deployer = msg.sender;\n  }\n\n  function uploadFile(string memory _fileHash, uint _fileSize, string memory _fileType, string memory _fileName, string memory _fileDescription) public {\n    // Make sure the file hash exists\n    require(bytes(_fileHash).length > 0);\n    // Make sure file type exists\n    require(bytes(_fileType).length > 0);\n    // Make sure file description exists\n    require(bytes(_fileDescription).length > 0);\n    // Make sure file fileName exists\n    require(bytes(_fileName).length > 0);\n    // Make sure uploader address exists\n    require(msg.sender!=address(0));\n    // Make sure file size is more than 0\n    require(_fileSize>0);\n\n    // Increment file id\n    fileCount ++; \n\n    // Add File to the contract\n    files[fileCount] = File(fileCount, _fileHash, _fileSize, _fileType, _fileName, _fileDescription, now, msg.sender, '', false);\n    // Trigger an event\n    emit FileUploaded(fileCount, _fileHash, _fileSize, _fileType, _fileName, _fileDescription, now, msg.sender, '', false);\n  }\n\n  function starAFile(uint fileId, string memory _fileHash) public {\n    // Make sure the file hash exists\n    require(bytes(_fileHash).length > 0);\n\n    files[fileId].starred = true;\n  }\n\n  function unstarAFile(uint fileId, string memory _fileHash) public {\n    // Make sure the file hash exists\n    require(bytes(_fileHash).length > 0);\n\n    files[fileId].starred = false;\n  }\n\n  function deleteFile(uint fileId, string memory _fileHash) public {\n    // Make sure the file hash exists\n    require(bytes(_fileHash).length > 0);\n\n    // Moving to trash\n    trashCount++;\n    files[fileId].fileId = trashCount;\n    trashFiles[trashCount] = files[fileId];\n\n    delete files[fileId];   \n  }\n\n  function restoreFile(uint fileId, string memory _fileHash) public {\n    // Make sure the file hash exists\n    require(bytes(_fileHash).length > 0);\n\n    // Moving to Drive\n    fileCount++;\n    trashFiles[fileId].fileId = fileCount;\n    files[fileCount] = trashFiles[fileId];\n\n    delete trashFiles[fileId];   \n  }\n\n  function deleteFileForever(uint fileId, string memory _fileHash) public {\n    // Make sure the file hash exists\n    require(bytes(_fileHash).length > 0);\n\n    delete trashFiles[fileId];   \n  }\n\n  function emptyTrash(uint[] memory fileIds) public {\n    for(uint i=0;i<fileIds.length;i++) {\n      delete trashFiles[fileIds[i]];\n    }\n    trashCount=0;\n  }\n\n  // Folders (Single hierarchy)\n  function addFolder(string memory _name) public {\n    folderCount++;\n    folders[folderCount] = Folder(folderCount, _name, '', msg.sender, '');\n  }\n\n  function updateFiles(uint folderId, string memory _data) public {\n    folders[folderId].data = _data;\n  }\n\n  function remove(uint folderId) public {\n    // removes from folders\n    delete folders[folderId]; \n  }\n\n  /* Tree implementation for nested folders\n\n  function get(bytes32 _name, bytes32 _parent) public view returns (bytes32, bytes32, uint[] memory, bytes32[] memory) {\n    Folder storage folder = folders[keccak256(abi.encodePacked(_parent, _name))];\n    return (folder.name, folder.parent, folder.data, folder.folders);\n  }\n    \n  function addFolder(bytes32 _name, bytes32 _parent, uint[] memory _data) public {\n    require(_name.length > 0);\n    \n    bytes32 path = keccak256(abi.encodePacked(_parent, _name));\n    \n    folders[path] = Folder({\n      name: _name, \n      parent: _parent, \n      data: _data, \n      folders: new bytes32[](0),\n      receivers: new address[](0)\n    });\n    folders[_parent].folders.push(path);\n  }\n\n  function updateFiles(bytes32 _name, bytes32 _parent, uint[] memory _data) public {\n    require(_name.length > 0);\n    \n    bytes32 path = keccak256(abi.encodePacked(_parent, _name));\n    \n    Folder storage folder = folders[path];\n    \n    folder.data = _data;\n  }\n\n  // Can only remove leaves\n  function remove(bytes32 _name, bytes32 _parent) public {\n    bytes32 path = keccak256(abi.encodePacked(_parent, _name));\n    // allow to remove leaves (folder without linked folders)\n    require(folders[path].folders.length == 0);\n    // removes from folders\n    delete folders[path];\n    \n    // removes from parent list of folders\n    bytes32[] storage childs = folders[_parent].folders;\n    for (uint256 i = getIndex(childs, path); i < childs.length - 1; i++) {\n      childs[i] = childs[i + 1];\n    }\n    delete childs[childs.length - 1];\n    childs.length--;\n  }\n\n  function getIndex(bytes32[] memory childs, bytes32 _path) pure internal returns (uint256) {\n    for (uint256 i = 0; i < childs.length; i++) {\n      if (_path == childs[i]) {\n        return i;\n      }\n    }\n    return childs.length - 1;\n  }\n\n  */\n\n  function shareAFile(uint fileId, string memory _fileHash, string memory _receivers) public {\n    // Make sure the file hash exists\n    require(bytes(_fileHash).length > 0);\n\n    // Moving to Shared Files\n    files[fileId].receivers = _receivers;\n  }\n\n  function shareAFolder(uint folderId, string memory _receivers) public { \n    // Moving to Shared Folders\n    folders[folderId].receivers = _receivers;\n  }\n\n  function buyStorage(uint amt, uint tokenAmt) public {\n    // Calling transfer fn\n    ethSwap.transferTokensToContract(tokenAmt, msg.sender);\n\n    // Increasing Storage\n    totalSize[msg.sender] = totalSize[msg.sender] + amt;\n  }\n\n  function withdrawTokens(uint tokenAmt, address receiver) public {\n    // Only deployer can call this \n    require(msg.sender == deployer);\n\n    // Calling transfer fn\n    ethSwap.transferTokensToAccount(tokenAmt, receiver);\n  }\n}",
  "sourcePath": "C:\\Users\\shahv\\Desktop\\VDrive\\src\\contracts\\DStorage.sol",
  "compiler": {
    "name": "solc",
    "version": "0.5.16+commit.9c3226ce.Emscripten.clang"
  },
  "schemaVersion": "3.0.23",
  "updatedAt": "2021-08-05T09:59:50.374Z",
  "networkType": "ethereum",
  "devdoc": {
    "methods": {}
  },
  "userdoc": {
    "methods": {}
  }
}