{
  "contractName": "DStorage",
  "abi": [
    {
      "inputs": [],
      "payable": false,
      "stateMutability": "nonpayable",
      "type": "constructor"
    },
    {
      "anonymous": false,
      "inputs": [
        {
          "indexed": false,
          "internalType": "uint256",
          "name": "fileId",
          "type": "uint256"
        },
        {
          "indexed": false,
          "internalType": "string",
          "name": "fileHash",
          "type": "string"
        },
        {
          "indexed": false,
          "internalType": "uint256",
          "name": "fileSize",
          "type": "uint256"
        },
        {
          "indexed": false,
          "internalType": "string",
          "name": "fileType",
          "type": "string"
        },
        {
          "indexed": false,
          "internalType": "string",
          "name": "fileName",
          "type": "string"
        },
        {
          "indexed": false,
          "internalType": "string",
          "name": "fileDescription",
          "type": "string"
        },
        {
          "indexed": false,
          "internalType": "uint256",
          "name": "uploadTime",
          "type": "uint256"
        },
        {
          "indexed": false,
          "internalType": "address payable",
          "name": "uploader",
          "type": "address"
        },
        {
          "indexed": false,
          "internalType": "bool",
          "name": "starred",
          "type": "bool"
        }
      ],
      "name": "FileUploaded",
      "type": "event"
    },
    {
      "constant": true,
      "inputs": [],
      "name": "fileCount",
      "outputs": [
        {
          "internalType": "uint256",
          "name": "",
          "type": "uint256"
        }
      ],
      "payable": false,
      "stateMutability": "view",
      "type": "function"
    },
    {
      "constant": true,
      "inputs": [
        {
          "internalType": "uint256",
          "name": "",
          "type": "uint256"
        }
      ],
      "name": "files",
      "outputs": [
        {
          "internalType": "uint256",
          "name": "fileId",
          "type": "uint256"
        },
        {
          "internalType": "string",
          "name": "fileHash",
          "type": "string"
        },
        {
          "internalType": "uint256",
          "name": "fileSize",
          "type": "uint256"
        },
        {
          "internalType": "string",
          "name": "fileType",
          "type": "string"
        },
        {
          "internalType": "string",
          "name": "fileName",
          "type": "string"
        },
        {
          "internalType": "string",
          "name": "fileDescription",
          "type": "string"
        },
        {
          "internalType": "uint256",
          "name": "uploadTime",
          "type": "uint256"
        },
        {
          "internalType": "address payable",
          "name": "uploader",
          "type": "address"
        },
        {
          "internalType": "bool",
          "name": "starred",
          "type": "bool"
        }
      ],
      "payable": false,
      "stateMutability": "view",
      "type": "function"
    },
    {
      "constant": true,
      "inputs": [],
      "name": "name",
      "outputs": [
        {
          "internalType": "string",
          "name": "",
          "type": "string"
        }
      ],
      "payable": false,
      "stateMutability": "view",
      "type": "function"
    },
    {
      "constant": true,
      "inputs": [],
      "name": "trashCount",
      "outputs": [
        {
          "internalType": "uint256",
          "name": "",
          "type": "uint256"
        }
      ],
      "payable": false,
      "stateMutability": "view",
      "type": "function"
    },
    {
      "constant": true,
      "inputs": [
        {
          "internalType": "uint256",
          "name": "",
          "type": "uint256"
        }
      ],
      "name": "trashFiles",
      "outputs": [
        {
          "internalType": "uint256",
          "name": "fileId",
          "type": "uint256"
        },
        {
          "internalType": "string",
          "name": "fileHash",
          "type": "string"
        },
        {
          "internalType": "uint256",
          "name": "fileSize",
          "type": "uint256"
        },
        {
          "internalType": "string",
          "name": "fileType",
          "type": "string"
        },
        {
          "internalType": "string",
          "name": "fileName",
          "type": "string"
        },
        {
          "internalType": "string",
          "name": "fileDescription",
          "type": "string"
        },
        {
          "internalType": "uint256",
          "name": "uploadTime",
          "type": "uint256"
        },
        {
          "internalType": "address payable",
          "name": "uploader",
          "type": "address"
        },
        {
          "internalType": "bool",
          "name": "starred",
          "type": "bool"
        }
      ],
      "payable": false,
      "stateMutability": "view",
      "type": "function"
    },
    {
      "constant": false,
      "inputs": [
        {
          "internalType": "string",
          "name": "_fileHash",
          "type": "string"
        },
        {
          "internalType": "uint256",
          "name": "_fileSize",
          "type": "uint256"
        },
        {
          "internalType": "string",
          "name": "_fileType",
          "type": "string"
        },
        {
          "internalType": "string",
          "name": "_fileName",
          "type": "string"
        },
        {
          "internalType": "string",
          "name": "_fileDescription",
          "type": "string"
        }
      ],
      "name": "uploadFile",
      "outputs": [],
      "payable": false,
      "stateMutability": "nonpayable",
      "type": "function"
    },
    {
      "constant": false,
      "inputs": [
        {
          "internalType": "uint256",
          "name": "fileId",
          "type": "uint256"
        },
        {
          "internalType": "string",
          "name": "_fileHash",
          "type": "string"
        }
      ],
      "name": "starAFile",
      "outputs": [],
      "payable": false,
      "stateMutability": "nonpayable",
      "type": "function"
    },
    {
      "constant": false,
      "inputs": [
        {
          "internalType": "uint256",
          "name": "fileId",
          "type": "uint256"
        },
        {
          "internalType": "string",
          "name": "_fileHash",
          "type": "string"
        }
      ],
      "name": "unstarAFile",
      "outputs": [],
      "payable": false,
      "stateMutability": "nonpayable",
      "type": "function"
    },
    {
      "constant": false,
      "inputs": [
        {
          "internalType": "uint256",
          "name": "fileId",
          "type": "uint256"
        },
        {
          "internalType": "string",
          "name": "_fileHash",
          "type": "string"
        }
      ],
      "name": "deleteFile",
      "outputs": [],
      "payable": false,
      "stateMutability": "nonpayable",
      "type": "function"
    },
    {
      "constant": false,
      "inputs": [
        {
          "internalType": "uint256",
          "name": "fileId",
          "type": "uint256"
        },
        {
          "internalType": "string",
          "name": "_fileHash",
          "type": "string"
        }
      ],
      "name": "deleteFileForever",
      "outputs": [],
      "payable": false,
      "stateMutability": "nonpayable",
      "type": "function"
    },
    {
      "constant": false,
      "inputs": [
        {
          "internalType": "uint256[]",
          "name": "fileIds",
          "type": "uint256[]"
        }
      ],
      "name": "emptyTrash",
      "outputs": [],
      "payable": false,
      "stateMutability": "nonpayable",
      "type": "function"
    }
  ],
  "bytecode": "0x60806040526040518060400160405280600881526020017f4453746f72616765000000000000000000000000000000000000000000000000815250600090805190602001906200005192919062000070565b50600060015560006002553480156200006957600080fd5b506200011f565b828054600181600116156101000203166002900490600052602060002090601f016020900481019282601f10620000b357805160ff1916838001178555620000e4565b82800160010185558215620000e4579182015b82811115620000e3578251825591602001919060010190620000c6565b5b509050620000f39190620000f7565b5090565b6200011c91905b8082111562000118576000816000905550600101620000fe565b5090565b90565b611d13806200012f6000396000f3fe608060405234801561001057600080fd5b50600436106100a95760003560e01c80637a0a044c116100715780637a0a044c1461047057806385ac4f3e14610535578063d5d7cbe5146105fa578063e82d9d33146106b2578063f4c714b41461093c578063f4e2831514610b7a576100a9565b806306fdde03146100ae57806330a67f1f146101315780633260f1a1146101f6578063373ddf4d146102145780634395351914610452575b600080fd5b6100b6610c3f565b6040518080602001828103825283818151815260200191508051906020019080838360005b838110156100f65780820151818401526020810190506100db565b50505050905090810190601f1680156101235780820380516001836020036101000a031916815260200191505b509250505060405180910390f35b6101f46004803603604081101561014757600080fd5b81019080803590602001909291908035906020019064010000000081111561016e57600080fd5b82018360208201111561018057600080fd5b803590602001918460018302840111640100000000831117156101a257600080fd5b91908080601f016020809104026020016040519081016040528093929190818152602001838380828437600081840152601f19601f820116905080830192505050505050509192919290505050610cdd565b005b6101fe610f44565b6040518082815260200191505060405180910390f35b6102406004803603602081101561022a57600080fd5b8101908080359060200190929190505050610f4a565b604051808a8152602001806020018981526020018060200180602001806020018881526020018773ffffffffffffffffffffffffffffffffffffffff1673ffffffffffffffffffffffffffffffffffffffff1681526020018615151515815260200185810385528d818151815260200191508051906020019080838360005b838110156102da5780820151818401526020810190506102bf565b50505050905090810190601f1680156103075780820380516001836020036101000a031916815260200191505b5085810384528b818151815260200191508051906020019080838360005b83811015610340578082015181840152602081019050610325565b50505050905090810190601f16801561036d5780820380516001836020036101000a031916815260200191505b5085810383528a818151815260200191508051906020019080838360005b838110156103a657808201518184015260208101905061038b565b50505050905090810190601f1680156103d35780820380516001836020036101000a031916815260200191505b50858103825289818151815260200191508051906020019080838360005b8381101561040c5780820151818401526020810190506103f1565b50505050905090810190601f1680156104395780820380516001836020036101000a031916815260200191505b509d505050505050505050505050505060405180910390f35b61045a611225565b6040518082815260200191505060405180910390f35b6105336004803603604081101561048657600080fd5b8101908080359060200190929190803590602001906401000000008111156104ad57600080fd5b8201836020820111156104bf57600080fd5b803590602001918460018302840111640100000000831117156104e157600080fd5b91908080601f016020809104026020016040519081016040528093929190818152602001838380828437600081840152601f19601f82011690508083019250505050505050919291929050505061122b565b005b6105f86004803603604081101561054b57600080fd5b81019080803590602001909291908035906020019064010000000081111561057257600080fd5b82018360208201111561058457600080fd5b803590602001918460018302840111640100000000831117156105a657600080fd5b91908080601f016020809104026020016040519081016040528093929190818152602001838380828437600081840152601f19601f82011690508083019250505050505050919291929050505061126c565b005b6106b06004803603602081101561061057600080fd5b810190808035906020019064010000000081111561062d57600080fd5b82018360208201111561063f57600080fd5b8035906020019184602083028401116401000000008311171561066157600080fd5b919080806020026020016040519081016040528093929190818152602001838360200280828437600081840152601f19601f820116905080830192505050505050509192919290505050611327565b005b61093a600480360360a08110156106c857600080fd5b81019080803590602001906401000000008111156106e557600080fd5b8201836020820111156106f757600080fd5b8035906020019184600183028401116401000000008311171561071957600080fd5b91908080601f016020809104026020016040519081016040528093929190818152602001838380828437600081840152601f19601f820116905080830192505050505050509192919290803590602001909291908035906020019064010000000081111561078657600080fd5b82018360208201111561079857600080fd5b803590602001918460018302840111640100000000831117156107ba57600080fd5b91908080601f016020809104026020016040519081016040528093929190818152602001838380828437600081840152601f19601f8201169050808301925050505050505091929192908035906020019064010000000081111561081d57600080fd5b82018360208201111561082f57600080fd5b8035906020019184600183028401116401000000008311171561085157600080fd5b91908080601f016020809104026020016040519081016040528093929190818152602001838380828437600081840152601f19601f820116905080830192505050505050509192919290803590602001906401000000008111156108b457600080fd5b8201836020820111156108c657600080fd5b803590602001918460018302840111640100000000831117156108e857600080fd5b91908080601f016020809104026020016040519081016040528093929190818152602001838380828437600081840152601f19601f82011690508083019250505050505050919291929050505061140b565b005b6109686004803603602081101561095257600080fd5b810190808035906020019092919050505061184e565b604051808a8152602001806020018981526020018060200180602001806020018881526020018773ffffffffffffffffffffffffffffffffffffffff1673ffffffffffffffffffffffffffffffffffffffff1681526020018615151515815260200185810385528d818151815260200191508051906020019080838360005b83811015610a025780820151818401526020810190506109e7565b50505050905090810190601f168015610a2f5780820380516001836020036101000a031916815260200191505b5085810384528b818151815260200191508051906020019080838360005b83811015610a68578082015181840152602081019050610a4d565b50505050905090810190601f168015610a955780820380516001836020036101000a031916815260200191505b5085810383528a818151815260200191508051906020019080838360005b83811015610ace578082015181840152602081019050610ab3565b50505050905090810190601f168015610afb5780820380516001836020036101000a031916815260200191505b50858103825289818151815260200191508051906020019080838360005b83811015610b34578082015181840152602081019050610b19565b50505050905090810190601f168015610b615780820380516001836020036101000a031916815260200191505b509d505050505050505050505050505060405180910390f35b610c3d60048036036040811015610b9057600080fd5b810190808035906020019092919080359060200190640100000000811115610bb757600080fd5b820183602082011115610bc957600080fd5b80359060200191846001830284011164010000000083111715610beb57600080fd5b91908080601f016020809104026020016040519081016040528093929190818152602001838380828437600081840152601f19601f820116905080830192505050505050509192919290505050611b29565b005b60008054600181600116156101000203166002900480601f016020809104026020016040519081016040528092919081815260200182805460018160011615610100020316600290048015610cd55780601f10610caa57610100808354040283529160200191610cd5565b820191906000526020600020905b815481529060010190602001808311610cb857829003601f168201915b505050505081565b6000815111610ceb57600080fd5b6002600081548092919060010191905055506002546003600084815260200190815260200160002060000181905550600360008381526020019081526020016000206004600060025481526020019081526020016000206000820154816000015560018201816001019080546001816001161561010002031660029004610d73929190611b6a565b506002820154816002015560038201816003019080546001816001161561010002031660029004610da5929190611b6a565b5060048201816004019080546001816001161561010002031660029004610dcd929190611b6a565b5060058201816005019080546001816001161561010002031660029004610df5929190611b6a565b50600682015481600601556007820160009054906101000a900473ffffffffffffffffffffffffffffffffffffffff168160070160006101000a81548173ffffffffffffffffffffffffffffffffffffffff021916908373ffffffffffffffffffffffffffffffffffffffff1602179055506007820160149054906101000a900460ff168160070160146101000a81548160ff02191690831515021790555090505060036000838152602001908152602001600020600080820160009055600182016000610ec39190611bf1565b6002820160009055600382016000610edb9190611bf1565b600482016000610eeb9190611bf1565b600582016000610efb9190611bf1565b60068201600090556007820160006101000a81549073ffffffffffffffffffffffffffffffffffffffff02191690556007820160146101000a81549060ff021916905550505050565b60025481565b6004602052806000526040600020600091509050806000015490806001018054600181600116156101000203166002900480601f016020809104026020016040519081016040528092919081815260200182805460018160011615610100020316600290048015610ffc5780601f10610fd157610100808354040283529160200191610ffc565b820191906000526020600020905b815481529060010190602001808311610fdf57829003601f168201915b505050505090806002015490806003018054600181600116156101000203166002900480601f0160208091040260200160405190810160405280929190818152602001828054600181600116156101000203166002900480156110a05780601f10611075576101008083540402835291602001916110a0565b820191906000526020600020905b81548152906001019060200180831161108357829003601f168201915b505050505090806004018054600181600116156101000203166002900480601f01602080910402602001604051908101604052809291908181526020018280546001816001161561010002031660029004801561113e5780601f106111135761010080835404028352916020019161113e565b820191906000526020600020905b81548152906001019060200180831161112157829003601f168201915b505050505090806005018054600181600116156101000203166002900480601f0160208091040260200160405190810160405280929190818152602001828054600181600116156101000203166002900480156111dc5780601f106111b1576101008083540402835291602001916111dc565b820191906000526020600020905b8154815290600101906020018083116111bf57829003601f168201915b5050505050908060060154908060070160009054906101000a900473ffffffffffffffffffffffffffffffffffffffff16908060070160149054906101000a900460ff16905089565b60015481565b600081511161123957600080fd5b60006003600084815260200190815260200160002060070160146101000a81548160ff0219169083151502179055505050565b600081511161127a57600080fd5b600460008381526020019081526020016000206000808201600090556001820160006112a69190611bf1565b60028201600090556003820160006112be9190611bf1565b6004820160006112ce9190611bf1565b6005820160006112de9190611bf1565b60068201600090556007820160006101000a81549073ffffffffffffffffffffffffffffffffffffffff02191690556007820160146101000a81549060ff021916905550505050565b60008090505b81518110156113ff576004600083838151811061134657fe5b602002602001015181526020019081526020016000206000808201600090556001820160006113759190611bf1565b600282016000905560038201600061138d9190611bf1565b60048201600061139d9190611bf1565b6005820160006113ad9190611bf1565b60068201600090556007820160006101000a81549073ffffffffffffffffffffffffffffffffffffffff02191690556007820160146101000a81549060ff02191690555050808060010191505061132d565b50600060028190555050565b600085511161141957600080fd5b600083511161142757600080fd5b600081511161143557600080fd5b600082511161144357600080fd5b600073ffffffffffffffffffffffffffffffffffffffff163373ffffffffffffffffffffffffffffffffffffffff16141561147d57600080fd5b6000841161148a57600080fd5b60016000815480929190600101919050555060405180610120016040528060015481526020018681526020018581526020018481526020018381526020018281526020014281526020013373ffffffffffffffffffffffffffffffffffffffff16815260200160001515815250600360006001548152602001908152602001600020600082015181600001556020820151816001019080519060200190611532929190611c39565b50604082015181600201556060820151816003019080519060200190611559929190611c39565b506080820151816004019080519060200190611576929190611c39565b5060a0820151816005019080519060200190611593929190611c39565b5060c0820151816006015560e08201518160070160006101000a81548173ffffffffffffffffffffffffffffffffffffffff021916908373ffffffffffffffffffffffffffffffffffffffff1602179055506101008201518160070160146101000a81548160ff0219169083151502179055509050507fdee90a49b13eb19542388699b9037a85c9a1b2b1b5f8cd1adcab7f0c841ec778600154868686868642336000604051808a8152602001806020018981526020018060200180602001806020018881526020018773ffffffffffffffffffffffffffffffffffffffff1673ffffffffffffffffffffffffffffffffffffffff1681526020018615151515815260200185810385528d818151815260200191508051906020019080838360005b838110156116d05780820151818401526020810190506116b5565b50505050905090810190601f1680156116fd5780820380516001836020036101000a031916815260200191505b5085810384528b818151815260200191508051906020019080838360005b8381101561173657808201518184015260208101905061171b565b50505050905090810190601f1680156117635780820380516001836020036101000a031916815260200191505b5085810383528a818151815260200191508051906020019080838360005b8381101561179c578082015181840152602081019050611781565b50505050905090810190601f1680156117c95780820380516001836020036101000a031916815260200191505b50858103825289818151815260200191508051906020019080838360005b838110156118025780820151818401526020810190506117e7565b50505050905090810190601f16801561182f5780820380516001836020036101000a031916815260200191505b509d505050505050505050505050505060405180910390a15050505050565b6003602052806000526040600020600091509050806000015490806001018054600181600116156101000203166002900480601f0160208091040260200160405190810160405280929190818152602001828054600181600116156101000203166002900480156119005780601f106118d557610100808354040283529160200191611900565b820191906000526020600020905b8154815290600101906020018083116118e357829003601f168201915b505050505090806002015490806003018054600181600116156101000203166002900480601f0160208091040260200160405190810160405280929190818152602001828054600181600116156101000203166002900480156119a45780601f10611979576101008083540402835291602001916119a4565b820191906000526020600020905b81548152906001019060200180831161198757829003601f168201915b505050505090806004018054600181600116156101000203166002900480601f016020809104026020016040519081016040528092919081815260200182805460018160011615610100020316600290048015611a425780601f10611a1757610100808354040283529160200191611a42565b820191906000526020600020905b815481529060010190602001808311611a2557829003601f168201915b505050505090806005018054600181600116156101000203166002900480601f016020809104026020016040519081016040528092919081815260200182805460018160011615610100020316600290048015611ae05780601f10611ab557610100808354040283529160200191611ae0565b820191906000526020600020905b815481529060010190602001808311611ac357829003601f168201915b5050505050908060060154908060070160009054906101000a900473ffffffffffffffffffffffffffffffffffffffff16908060070160149054906101000a900460ff16905089565b6000815111611b3757600080fd5b60016003600084815260200190815260200160002060070160146101000a81548160ff0219169083151502179055505050565b828054600181600116156101000203166002900490600052602060002090601f016020900481019282601f10611ba35780548555611be0565b82800160010185558215611be057600052602060002091601f016020900482015b82811115611bdf578254825591600101919060010190611bc4565b5b509050611bed9190611cb9565b5090565b50805460018160011615610100020316600290046000825580601f10611c175750611c36565b601f016020900490600052602060002090810190611c359190611cb9565b5b50565b828054600181600116156101000203166002900490600052602060002090601f016020900481019282601f10611c7a57805160ff1916838001178555611ca8565b82800160010185558215611ca8579182015b82811115611ca7578251825591602001919060010190611c8c565b5b509050611cb59190611cb9565b5090565b611cdb91905b80821115611cd7576000816000905550600101611cbf565b5090565b9056fea265627a7a7231582005b41eb2003fafee8d89d40743b68a6b5e9b8e61dbd868275b65d8abae3d6e8d64736f6c63430005100032",
  "source": "pragma solidity ^0.5.0;\n\ncontract DStorage {\n  string public name = 'DStorage';\n  uint public fileCount = 0;\n  uint public trashCount = 0;\n\n  mapping(uint => File) public files;\n  mapping(uint => File) public trashFiles;\n\n  struct File {\n    uint fileId;\n    string fileHash;\n    uint fileSize;\n    string fileType;\n    string fileName;\n    string fileDescription;\n    uint uploadTime;\n    address payable uploader;\n    bool starred;\n  }\n\n  event FileUploaded(\n    uint fileId,\n    string fileHash,\n    uint fileSize,\n    string fileType,\n    string fileName, \n    string fileDescription,\n    uint uploadTime,\n    address payable uploader,\n    bool starred\n  );\n\n  constructor() public {\n  }\n\n  function uploadFile(string memory _fileHash, uint _fileSize, string memory _fileType, string memory _fileName, string memory _fileDescription) public {\n    // Make sure the file hash exists\n    require(bytes(_fileHash).length > 0);\n    // Make sure file type exists\n    require(bytes(_fileType).length > 0);\n    // Make sure file description exists\n    require(bytes(_fileDescription).length > 0);\n    // Make sure file fileName exists\n    require(bytes(_fileName).length > 0);\n    // Make sure uploader address exists\n    require(msg.sender!=address(0));\n    // Make sure file size is more than 0\n    require(_fileSize>0);\n\n    // Increment file id\n    fileCount ++;\n\n    // Add File to the contract\n    files[fileCount] = File(fileCount, _fileHash, _fileSize, _fileType, _fileName, _fileDescription, now, msg.sender, false);\n    // Trigger an event\n    emit FileUploaded(fileCount, _fileHash, _fileSize, _fileType, _fileName, _fileDescription, now, msg.sender, false);\n  }\n\n  function starAFile(uint fileId, string memory _fileHash) public {\n    // Make sure the file hash exists\n    require(bytes(_fileHash).length > 0);\n\n    files[fileId].starred = true;\n  }\n\n  function unstarAFile(uint fileId, string memory _fileHash) public {\n    // Make sure the file hash exists\n    require(bytes(_fileHash).length > 0);\n\n    files[fileId].starred = false;\n  }\n\n  function deleteFile(uint fileId, string memory _fileHash) public {\n    // Make sure the file hash exists\n    require(bytes(_fileHash).length > 0);\n\n    // Moving to trash\n    trashCount++;\n    files[fileId].fileId = trashCount;\n    trashFiles[trashCount] = files[fileId];\n\n    delete files[fileId];   \n  }\n\n  function deleteFileForever(uint fileId, string memory _fileHash) public {\n    // Make sure the file hash exists\n    require(bytes(_fileHash).length > 0);\n\n    delete trashFiles[fileId];   \n  }\n\n  function emptyTrash(uint[] memory fileIds) public {\n    for(uint i=0;i<fileIds.length;i++) {\n      delete trashFiles[fileIds[i]];\n    }\n    trashCount=0;\n  }\n}",
  "sourcePath": "C:\\Users\\shahv\\Desktop\\VDrive\\src\\contracts\\DStorage.sol",
  "compiler": {
    "name": "solc",
    "version": "0.5.16+commit.9c3226ce.Emscripten.clang"
  },
  "schemaVersion": "3.0.23",
  "updatedAt": "2021-06-23T10:37:46.891Z",
  "networkType": "ethereum",
  "devdoc": {
    "methods": {}
  },
  "userdoc": {
    "methods": {}
  }
}