{
  "contractName": "DStorage",
  "abi": [
    {
      "inputs": [],
      "payable": false,
      "stateMutability": "nonpayable",
      "type": "constructor"
    },
    {
      "anonymous": false,
      "inputs": [
        {
          "indexed": false,
          "internalType": "uint256",
          "name": "fileId",
          "type": "uint256"
        },
        {
          "indexed": false,
          "internalType": "string",
          "name": "fileHash",
          "type": "string"
        },
        {
          "indexed": false,
          "internalType": "uint256",
          "name": "fileSize",
          "type": "uint256"
        },
        {
          "indexed": false,
          "internalType": "string",
          "name": "fileType",
          "type": "string"
        },
        {
          "indexed": false,
          "internalType": "string",
          "name": "fileName",
          "type": "string"
        },
        {
          "indexed": false,
          "internalType": "string",
          "name": "fileDescription",
          "type": "string"
        },
        {
          "indexed": false,
          "internalType": "uint256",
          "name": "uploadTime",
          "type": "uint256"
        },
        {
          "indexed": false,
          "internalType": "address payable",
          "name": "uploader",
          "type": "address"
        },
        {
          "indexed": false,
          "internalType": "string",
          "name": "receivers",
          "type": "string"
        },
        {
          "indexed": false,
          "internalType": "bool",
          "name": "starred",
          "type": "bool"
        }
      ],
      "name": "FileUploaded",
      "type": "event"
    },
    {
      "constant": true,
      "inputs": [],
      "name": "fileCount",
      "outputs": [
        {
          "internalType": "uint256",
          "name": "",
          "type": "uint256"
        }
      ],
      "payable": false,
      "stateMutability": "view",
      "type": "function"
    },
    {
      "constant": true,
      "inputs": [
        {
          "internalType": "uint256",
          "name": "",
          "type": "uint256"
        }
      ],
      "name": "files",
      "outputs": [
        {
          "internalType": "uint256",
          "name": "fileId",
          "type": "uint256"
        },
        {
          "internalType": "string",
          "name": "fileHash",
          "type": "string"
        },
        {
          "internalType": "uint256",
          "name": "fileSize",
          "type": "uint256"
        },
        {
          "internalType": "string",
          "name": "fileType",
          "type": "string"
        },
        {
          "internalType": "string",
          "name": "fileName",
          "type": "string"
        },
        {
          "internalType": "string",
          "name": "fileDescription",
          "type": "string"
        },
        {
          "internalType": "uint256",
          "name": "uploadTime",
          "type": "uint256"
        },
        {
          "internalType": "address payable",
          "name": "uploader",
          "type": "address"
        },
        {
          "internalType": "string",
          "name": "receivers",
          "type": "string"
        },
        {
          "internalType": "bool",
          "name": "starred",
          "type": "bool"
        }
      ],
      "payable": false,
      "stateMutability": "view",
      "type": "function"
    },
    {
      "constant": true,
      "inputs": [],
      "name": "folderCount",
      "outputs": [
        {
          "internalType": "uint256",
          "name": "",
          "type": "uint256"
        }
      ],
      "payable": false,
      "stateMutability": "view",
      "type": "function"
    },
    {
      "constant": true,
      "inputs": [
        {
          "internalType": "uint256",
          "name": "",
          "type": "uint256"
        }
      ],
      "name": "folders",
      "outputs": [
        {
          "internalType": "uint256",
          "name": "folderId",
          "type": "uint256"
        },
        {
          "internalType": "string",
          "name": "name",
          "type": "string"
        },
        {
          "internalType": "string",
          "name": "data",
          "type": "string"
        },
        {
          "internalType": "address payable",
          "name": "uploader",
          "type": "address"
        },
        {
          "internalType": "string",
          "name": "receivers",
          "type": "string"
        }
      ],
      "payable": false,
      "stateMutability": "view",
      "type": "function"
    },
    {
      "constant": true,
      "inputs": [],
      "name": "name",
      "outputs": [
        {
          "internalType": "string",
          "name": "",
          "type": "string"
        }
      ],
      "payable": false,
      "stateMutability": "view",
      "type": "function"
    },
    {
      "constant": true,
      "inputs": [],
      "name": "trashCount",
      "outputs": [
        {
          "internalType": "uint256",
          "name": "",
          "type": "uint256"
        }
      ],
      "payable": false,
      "stateMutability": "view",
      "type": "function"
    },
    {
      "constant": true,
      "inputs": [
        {
          "internalType": "uint256",
          "name": "",
          "type": "uint256"
        }
      ],
      "name": "trashFiles",
      "outputs": [
        {
          "internalType": "uint256",
          "name": "fileId",
          "type": "uint256"
        },
        {
          "internalType": "string",
          "name": "fileHash",
          "type": "string"
        },
        {
          "internalType": "uint256",
          "name": "fileSize",
          "type": "uint256"
        },
        {
          "internalType": "string",
          "name": "fileType",
          "type": "string"
        },
        {
          "internalType": "string",
          "name": "fileName",
          "type": "string"
        },
        {
          "internalType": "string",
          "name": "fileDescription",
          "type": "string"
        },
        {
          "internalType": "uint256",
          "name": "uploadTime",
          "type": "uint256"
        },
        {
          "internalType": "address payable",
          "name": "uploader",
          "type": "address"
        },
        {
          "internalType": "string",
          "name": "receivers",
          "type": "string"
        },
        {
          "internalType": "bool",
          "name": "starred",
          "type": "bool"
        }
      ],
      "payable": false,
      "stateMutability": "view",
      "type": "function"
    },
    {
      "constant": false,
      "inputs": [
        {
          "internalType": "string",
          "name": "_fileHash",
          "type": "string"
        },
        {
          "internalType": "uint256",
          "name": "_fileSize",
          "type": "uint256"
        },
        {
          "internalType": "string",
          "name": "_fileType",
          "type": "string"
        },
        {
          "internalType": "string",
          "name": "_fileName",
          "type": "string"
        },
        {
          "internalType": "string",
          "name": "_fileDescription",
          "type": "string"
        }
      ],
      "name": "uploadFile",
      "outputs": [],
      "payable": false,
      "stateMutability": "nonpayable",
      "type": "function"
    },
    {
      "constant": false,
      "inputs": [
        {
          "internalType": "uint256",
          "name": "fileId",
          "type": "uint256"
        },
        {
          "internalType": "string",
          "name": "_fileHash",
          "type": "string"
        }
      ],
      "name": "starAFile",
      "outputs": [],
      "payable": false,
      "stateMutability": "nonpayable",
      "type": "function"
    },
    {
      "constant": false,
      "inputs": [
        {
          "internalType": "uint256",
          "name": "fileId",
          "type": "uint256"
        },
        {
          "internalType": "string",
          "name": "_fileHash",
          "type": "string"
        }
      ],
      "name": "unstarAFile",
      "outputs": [],
      "payable": false,
      "stateMutability": "nonpayable",
      "type": "function"
    },
    {
      "constant": false,
      "inputs": [
        {
          "internalType": "uint256",
          "name": "fileId",
          "type": "uint256"
        },
        {
          "internalType": "string",
          "name": "_fileHash",
          "type": "string"
        }
      ],
      "name": "deleteFile",
      "outputs": [],
      "payable": false,
      "stateMutability": "nonpayable",
      "type": "function"
    },
    {
      "constant": false,
      "inputs": [
        {
          "internalType": "uint256",
          "name": "fileId",
          "type": "uint256"
        },
        {
          "internalType": "string",
          "name": "_fileHash",
          "type": "string"
        }
      ],
      "name": "deleteFileForever",
      "outputs": [],
      "payable": false,
      "stateMutability": "nonpayable",
      "type": "function"
    },
    {
      "constant": false,
      "inputs": [
        {
          "internalType": "uint256[]",
          "name": "fileIds",
          "type": "uint256[]"
        }
      ],
      "name": "emptyTrash",
      "outputs": [],
      "payable": false,
      "stateMutability": "nonpayable",
      "type": "function"
    },
    {
      "constant": false,
      "inputs": [
        {
          "internalType": "string",
          "name": "_name",
          "type": "string"
        }
      ],
      "name": "addFolder",
      "outputs": [],
      "payable": false,
      "stateMutability": "nonpayable",
      "type": "function"
    },
    {
      "constant": false,
      "inputs": [
        {
          "internalType": "uint256",
          "name": "folderId",
          "type": "uint256"
        },
        {
          "internalType": "string",
          "name": "_data",
          "type": "string"
        }
      ],
      "name": "updateFiles",
      "outputs": [],
      "payable": false,
      "stateMutability": "nonpayable",
      "type": "function"
    },
    {
      "constant": false,
      "inputs": [
        {
          "internalType": "uint256",
          "name": "folderId",
          "type": "uint256"
        }
      ],
      "name": "remove",
      "outputs": [],
      "payable": false,
      "stateMutability": "nonpayable",
      "type": "function"
    },
    {
      "constant": false,
      "inputs": [
        {
          "internalType": "uint256",
          "name": "fileId",
          "type": "uint256"
        },
        {
          "internalType": "string",
          "name": "_fileHash",
          "type": "string"
        },
        {
          "internalType": "string",
          "name": "_receivers",
          "type": "string"
        }
      ],
      "name": "shareAFile",
      "outputs": [],
      "payable": false,
      "stateMutability": "nonpayable",
      "type": "function"
    },
    {
      "constant": false,
      "inputs": [
        {
          "internalType": "uint256",
          "name": "folderId",
          "type": "uint256"
        },
        {
          "internalType": "string",
          "name": "_receivers",
          "type": "string"
        }
      ],
      "name": "shareAFolder",
      "outputs": [],
      "payable": false,
      "stateMutability": "nonpayable",
      "type": "function"
    }
  ],
  "bytecode": "0x60806040526040518060400160405280600881526020017f4453746f72616765000000000000000000000000000000000000000000000000815250600090805190602001906200005192919062000075565b506000600155600060025560006003553480156200006e57600080fd5b5062000124565b828054600181600116156101000203166002900490600052602060002090601f016020900481019282601f10620000b857805160ff1916838001178555620000e9565b82800160010185558215620000e9579182015b82811115620000e8578251825591602001919060010190620000cb565b5b509050620000f89190620000fc565b5090565b6200012191905b808211156200011d57600081600090555060010162000103565b5090565b90565b612ac380620001346000396000f3fe608060405234801561001057600080fd5b50600436106101165760003560e01c80635ef0ac2e116100a2578063d5d7cbe511610071578063d5d7cbe514610bb4578063e82d9d3314610c6c578063ee48bf9614610ef6578063f4c714b414610fbb578063f4e283151461126557610116565b80635ef0ac2e146108aa5780637a0a044c1461096557806385ac4f3e14610a2a578063c29082c914610aef57610116565b8063373ddf4d116100e9578063373ddf4d146103dd578063439535191461068757806344bad349146106a55780634cc82215146106c3578063536722e7146106f157610116565b806306fdde031461011b57806310e725911461019e57806330a67f1f146102fa5780633260f1a1146103bf575b600080fd5b61012361132a565b6040518080602001828103825283818151815260200191508051906020019080838360005b83811015610163578082015181840152602081019050610148565b50505050905090810190601f1680156101905780820380516001836020036101000a031916815260200191505b509250505060405180910390f35b6102f8600480360360608110156101b457600080fd5b8101908080359060200190929190803590602001906401000000008111156101db57600080fd5b8201836020820111156101ed57600080fd5b8035906020019184600183028401116401000000008311171561020f57600080fd5b91908080601f016020809104026020016040519081016040528093929190818152602001838380828437600081840152601f19601f8201169050808301925050505050505091929192908035906020019064010000000081111561027257600080fd5b82018360208201111561028457600080fd5b803590602001918460018302840111640100000000831117156102a657600080fd5b91908080601f016020809104026020016040519081016040528093929190818152602001838380828437600081840152601f19601f8201169050808301925050505050505091929192905050506113c8565b005b6103bd6004803603604081101561031057600080fd5b81019080803590602001909291908035906020019064010000000081111561033757600080fd5b82018360208201111561034957600080fd5b8035906020019184600183028401116401000000008311171561036b57600080fd5b91908080601f016020809104026020016040519081016040528093929190818152602001838380828437600081840152601f19601f820116905080830192505050505050509192919290505050611406565b005b6103c76116a5565b6040518082815260200191505060405180910390f35b610409600480360360208110156103f357600080fd5b81019080803590602001909291905050506116ab565b604051808b8152602001806020018a81526020018060200180602001806020018981526020018873ffffffffffffffffffffffffffffffffffffffff1673ffffffffffffffffffffffffffffffffffffffff168152602001806020018715151515815260200186810386528f818151815260200191508051906020019080838360005b838110156104a757808201518184015260208101905061048c565b50505050905090810190601f1680156104d45780820380516001836020036101000a031916815260200191505b5086810385528d818151815260200191508051906020019080838360005b8381101561050d5780820151818401526020810190506104f2565b50505050905090810190601f16801561053a5780820380516001836020036101000a031916815260200191505b5086810384528c818151815260200191508051906020019080838360005b83811015610573578082015181840152602081019050610558565b50505050905090810190601f1680156105a05780820380516001836020036101000a031916815260200191505b5086810383528b818151815260200191508051906020019080838360005b838110156105d95780820151818401526020810190506105be565b50505050905090810190601f1680156106065780820380516001836020036101000a031916815260200191505b50868103825288818151815260200191508051906020019080838360005b8381101561063f578082015181840152602081019050610624565b50505050905090810190601f16801561066c5780820380516001836020036101000a031916815260200191505b509f5050505050505050505050505050505060405180910390f35b61068f611a24565b6040518082815260200191505060405180910390f35b6106ad611a2a565b6040518082815260200191505060405180910390f35b6106ef600480360360208110156106d957600080fd5b8101908080359060200190929190505050611a30565b005b61071d6004803603602081101561070757600080fd5b8101908080359060200190929190505050611aa8565b6040518086815260200180602001806020018573ffffffffffffffffffffffffffffffffffffffff1673ffffffffffffffffffffffffffffffffffffffff16815260200180602001848103845288818151815260200191508051906020019080838360005b8381101561079d578082015181840152602081019050610782565b50505050905090810190601f1680156107ca5780820380516001836020036101000a031916815260200191505b50848103835287818151815260200191508051906020019080838360005b838110156108035780820151818401526020810190506107e8565b50505050905090810190601f1680156108305780820380516001836020036101000a031916815260200191505b50848103825285818151815260200191508051906020019080838360005b8381101561086957808201518184015260208101905061084e565b50505050905090810190601f1680156108965780820380516001836020036101000a031916815260200191505b509850505050505050505060405180910390f35b610963600480360360208110156108c057600080fd5b81019080803590602001906401000000008111156108dd57600080fd5b8201836020820111156108ef57600080fd5b8035906020019184600183028401116401000000008311171561091157600080fd5b91908080601f016020809104026020016040519081016040528093929190818152602001838380828437600081840152601f19601f820116905080830192505050505050509192919290505050611cc6565b005b610a286004803603604081101561097b57600080fd5b8101908080359060200190929190803590602001906401000000008111156109a257600080fd5b8201836020820111156109b457600080fd5b803590602001918460018302840111640100000000831117156109d657600080fd5b91908080601f016020809104026020016040519081016040528093929190818152602001838380828437600081840152601f19601f820116905080830192505050505050509192919290505050611df8565b005b610aed60048036036040811015610a4057600080fd5b810190808035906020019092919080359060200190640100000000811115610a6757600080fd5b820183602082011115610a7957600080fd5b80359060200191846001830284011164010000000083111715610a9b57600080fd5b91908080601f016020809104026020016040519081016040528093929190818152602001838380828437600081840152601f19601f820116905080830192505050505050509192919290505050611e39565b005b610bb260048036036040811015610b0557600080fd5b810190808035906020019092919080359060200190640100000000811115610b2c57600080fd5b820183602082011115610b3e57600080fd5b80359060200191846001830284011164010000000083111715610b6057600080fd5b91908080601f016020809104026020016040519081016040528093929190818152602001838380828437600081840152601f19601f820116905080830192505050505050509192919290505050611f04565b005b610c6a60048036036020811015610bca57600080fd5b8101908080359060200190640100000000811115610be757600080fd5b820183602082011115610bf957600080fd5b80359060200191846020830284011164010000000083111715610c1b57600080fd5b919080806020026020016040519081016040528093929190818152602001838360200280828437600081840152601f19601f820116905080830192505050505050509192919290505050611f33565b005b610ef4600480360360a0811015610c8257600080fd5b8101908080359060200190640100000000811115610c9f57600080fd5b820183602082011115610cb157600080fd5b80359060200191846001830284011164010000000083111715610cd357600080fd5b91908080601f016020809104026020016040519081016040528093929190818152602001838380828437600081840152601f19601f8201169050808301925050505050505091929192908035906020019092919080359060200190640100000000811115610d4057600080fd5b820183602082011115610d5257600080fd5b80359060200191846001830284011164010000000083111715610d7457600080fd5b91908080601f016020809104026020016040519081016040528093929190818152602001838380828437600081840152601f19601f82011690508083019250505050505050919291929080359060200190640100000000811115610dd757600080fd5b820183602082011115610de957600080fd5b80359060200191846001830284011164010000000083111715610e0b57600080fd5b91908080601f016020809104026020016040519081016040528093929190818152602001838380828437600081840152601f19601f82011690508083019250505050505050919291929080359060200190640100000000811115610e6e57600080fd5b820183602082011115610e8057600080fd5b80359060200191846001830284011164010000000083111715610ea257600080fd5b91908080601f016020809104026020016040519081016040528093929190818152602001838380828437600081840152601f19601f820116905080830192505050505050509192919290505050612027565b005b610fb960048036036040811015610f0c57600080fd5b810190808035906020019092919080359060200190640100000000811115610f3357600080fd5b820183602082011115610f4557600080fd5b80359060200191846001830284011164010000000083111715610f6757600080fd5b91908080601f016020809104026020016040519081016040528093929190818152602001838380828437600081840152601f19601f8201169050808301925050505050505091929192905050506124b1565b005b610fe760048036036020811015610fd157600080fd5b81019080803590602001909291905050506124e0565b604051808b8152602001806020018a81526020018060200180602001806020018981526020018873ffffffffffffffffffffffffffffffffffffffff1673ffffffffffffffffffffffffffffffffffffffff168152602001806020018715151515815260200186810386528f818151815260200191508051906020019080838360005b8381101561108557808201518184015260208101905061106a565b50505050905090810190601f1680156110b25780820380516001836020036101000a031916815260200191505b5086810385528d818151815260200191508051906020019080838360005b838110156110eb5780820151818401526020810190506110d0565b50505050905090810190601f1680156111185780820380516001836020036101000a031916815260200191505b5086810384528c818151815260200191508051906020019080838360005b83811015611151578082015181840152602081019050611136565b50505050905090810190601f16801561117e5780820380516001836020036101000a031916815260200191505b5086810383528b818151815260200191508051906020019080838360005b838110156111b757808201518184015260208101905061119c565b50505050905090810190601f1680156111e45780820380516001836020036101000a031916815260200191505b50868103825288818151815260200191508051906020019080838360005b8381101561121d578082015181840152602081019050611202565b50505050905090810190601f16801561124a5780820380516001836020036101000a031916815260200191505b509f5050505050505050505050505050505060405180910390f35b6113286004803603604081101561127b57600080fd5b8101908080359060200190929190803590602001906401000000008111156112a257600080fd5b8201836020820111156112b457600080fd5b803590602001918460018302840111640100000000831117156112d657600080fd5b91908080601f016020809104026020016040519081016040528093929190818152602001838380828437600081840152601f19601f820116905080830192505050505050509192919290505050612859565b005b60008054600181600116156101000203166002900480601f0160208091040260200160405190810160405280929190818152602001828054600181600116156101000203166002900480156113c05780601f10611395576101008083540402835291602001916113c0565b820191906000526020600020905b8154815290600101906020018083116113a357829003601f168201915b505050505081565b60008251116113d657600080fd5b8060046000858152602001908152602001600020600801908051906020019061140092919061289a565b50505050565b600081511161141457600080fd5b600260008154809291906001019190505550600254600460008481526020019081526020016000206000018190555060046000838152602001908152602001600020600660006002548152602001908152602001600020600082015481600001556001820181600101908054600181600116156101000203166002900461149c92919061291a565b5060028201548160020155600382018160030190805460018160011615610100020316600290046114ce92919061291a565b50600482018160040190805460018160011615610100020316600290046114f692919061291a565b506005820181600501908054600181600116156101000203166002900461151e92919061291a565b50600682015481600601556007820160009054906101000a900473ffffffffffffffffffffffffffffffffffffffff168160070160006101000a81548173ffffffffffffffffffffffffffffffffffffffff021916908373ffffffffffffffffffffffffffffffffffffffff160217905550600882018160080190805460018160011615610100020316600290046115b792919061291a565b506009820160009054906101000a900460ff168160090160006101000a81548160ff0219169083151502179055509050506004600083815260200190815260200160002060008082016000905560018201600061161491906129a1565b600282016000905560038201600061162c91906129a1565b60048201600061163c91906129a1565b60058201600061164c91906129a1565b60068201600090556007820160006101000a81549073ffffffffffffffffffffffffffffffffffffffff021916905560088201600061168b91906129a1565b6009820160006101000a81549060ff021916905550505050565b60025481565b6006602052806000526040600020600091509050806000015490806001018054600181600116156101000203166002900480601f01602080910402602001604051908101604052809291908181526020018280546001816001161561010002031660029004801561175d5780601f106117325761010080835404028352916020019161175d565b820191906000526020600020905b81548152906001019060200180831161174057829003601f168201915b505050505090806002015490806003018054600181600116156101000203166002900480601f0160208091040260200160405190810160405280929190818152602001828054600181600116156101000203166002900480156118015780601f106117d657610100808354040283529160200191611801565b820191906000526020600020905b8154815290600101906020018083116117e457829003601f168201915b505050505090806004018054600181600116156101000203166002900480601f01602080910402602001604051908101604052809291908181526020018280546001816001161561010002031660029004801561189f5780601f106118745761010080835404028352916020019161189f565b820191906000526020600020905b81548152906001019060200180831161188257829003601f168201915b505050505090806005018054600181600116156101000203166002900480601f01602080910402602001604051908101604052809291908181526020018280546001816001161561010002031660029004801561193d5780601f106119125761010080835404028352916020019161193d565b820191906000526020600020905b81548152906001019060200180831161192057829003601f168201915b5050505050908060060154908060070160009054906101000a900473ffffffffffffffffffffffffffffffffffffffff1690806008018054600181600116156101000203166002900480601f016020809104026020016040519081016040528092919081815260200182805460018160011615610100020316600290048015611a075780601f106119dc57610100808354040283529160200191611a07565b820191906000526020600020905b8154815290600101906020018083116119ea57829003601f168201915b5050505050908060090160009054906101000a900460ff1690508a565b60015481565b60035481565b60056000828152602001908152602001600020600080820160009055600182016000611a5c91906129a1565b600282016000611a6c91906129a1565b6003820160006101000a81549073ffffffffffffffffffffffffffffffffffffffff0219169055600482016000611aa391906129a1565b505050565b6005602052806000526040600020600091509050806000015490806001018054600181600116156101000203166002900480601f016020809104026020016040519081016040528092919081815260200182805460018160011615610100020316600290048015611b5a5780601f10611b2f57610100808354040283529160200191611b5a565b820191906000526020600020905b815481529060010190602001808311611b3d57829003601f168201915b505050505090806002018054600181600116156101000203166002900480601f016020809104026020016040519081016040528092919081815260200182805460018160011615610100020316600290048015611bf85780601f10611bcd57610100808354040283529160200191611bf8565b820191906000526020600020905b815481529060010190602001808311611bdb57829003601f168201915b5050505050908060030160009054906101000a900473ffffffffffffffffffffffffffffffffffffffff1690806004018054600181600116156101000203166002900480601f016020809104026020016040519081016040528092919081815260200182805460018160011615610100020316600290048015611cbc5780601f10611c9157610100808354040283529160200191611cbc565b820191906000526020600020905b815481529060010190602001808311611c9f57829003601f168201915b5050505050905085565b6003600081548092919060010191905055506040518060a0016040528060035481526020018281526020016040518060200160405280600081525081526020013373ffffffffffffffffffffffffffffffffffffffff16815260200160405180602001604052806000815250815250600560006003548152602001908152602001600020600082015181600001556020820151816001019080519060200190611d709291906129e9565b506040820151816002019080519060200190611d8d9291906129e9565b5060608201518160030160006101000a81548173ffffffffffffffffffffffffffffffffffffffff021916908373ffffffffffffffffffffffffffffffffffffffff1602179055506080820151816004019080519060200190611df19291906129e9565b5090505050565b6000815111611e0657600080fd5b60006004600084815260200190815260200160002060090160006101000a81548160ff0219169083151502179055505050565b6000815111611e4757600080fd5b60066000838152602001908152602001600020600080820160009055600182016000611e7391906129a1565b6002820160009055600382016000611e8b91906129a1565b600482016000611e9b91906129a1565b600582016000611eab91906129a1565b60068201600090556007820160006101000a81549073ffffffffffffffffffffffffffffffffffffffff0219169055600882016000611eea91906129a1565b6009820160006101000a81549060ff021916905550505050565b80600560008481526020019081526020016000206002019080519060200190611f2e92919061289a565b505050565b60008090505b815181101561201b5760066000838381518110611f5257fe5b60200260200101518152602001908152602001600020600080820160009055600182016000611f8191906129a1565b6002820160009055600382016000611f9991906129a1565b600482016000611fa991906129a1565b600582016000611fb991906129a1565b60068201600090556007820160006101000a81549073ffffffffffffffffffffffffffffffffffffffff0219169055600882016000611ff891906129a1565b6009820160006101000a81549060ff021916905550508080600101915050611f39565b50600060028190555050565b600085511161203557600080fd5b600083511161204357600080fd5b600081511161205157600080fd5b600082511161205f57600080fd5b600073ffffffffffffffffffffffffffffffffffffffff163373ffffffffffffffffffffffffffffffffffffffff16141561209957600080fd5b600084116120a657600080fd5b60016000815480929190600101919050555060405180610140016040528060015481526020018681526020018581526020018481526020018381526020018281526020014281526020013373ffffffffffffffffffffffffffffffffffffffff168152602001604051806020016040528060008152508152602001600015158152506004600060015481526020019081526020016000206000820151816000015560208201518160010190805190602001906121639291906129e9565b5060408201518160020155606082015181600301908051906020019061218a9291906129e9565b5060808201518160040190805190602001906121a79291906129e9565b5060a08201518160050190805190602001906121c49291906129e9565b5060c0820151816006015560e08201518160070160006101000a81548173ffffffffffffffffffffffffffffffffffffffff021916908373ffffffffffffffffffffffffffffffffffffffff1602179055506101008201518160080190805190602001906122339291906129e9565b506101208201518160090160006101000a81548160ff0219169083151502179055509050507f1b491f28c37a9ffd4d706279ccf7d75121a6ba53cad2dc6475e951a1431f1396600154868686868642336000604051808a8152602001806020018981526020018060200180602001806020018881526020018773ffffffffffffffffffffffffffffffffffffffff1673ffffffffffffffffffffffffffffffffffffffff168152602001806020018715151515815260200186810386528e818151815260200191508051906020019080838360005b83811015612323578082015181840152602081019050612308565b50505050905090810190601f1680156123505780820380516001836020036101000a031916815260200191505b5086810385528c818151815260200191508051906020019080838360005b8381101561238957808201518184015260208101905061236e565b50505050905090810190601f1680156123b65780820380516001836020036101000a031916815260200191505b5086810384528b818151815260200191508051906020019080838360005b838110156123ef5780820151818401526020810190506123d4565b50505050905090810190601f16801561241c5780820380516001836020036101000a031916815260200191505b5086810383528a818151815260200191508051906020019080838360005b8381101561245557808201518184015260208101905061243a565b50505050905090810190601f1680156124825780820380516001836020036101000a031916815260200191505b508681038252600081526020016020019e50505050505050505050505050505060405180910390a15050505050565b806005600084815260200190815260200160002060040190805190602001906124db92919061289a565b505050565b6004602052806000526040600020600091509050806000015490806001018054600181600116156101000203166002900480601f0160208091040260200160405190810160405280929190818152602001828054600181600116156101000203166002900480156125925780601f1061256757610100808354040283529160200191612592565b820191906000526020600020905b81548152906001019060200180831161257557829003601f168201915b505050505090806002015490806003018054600181600116156101000203166002900480601f0160208091040260200160405190810160405280929190818152602001828054600181600116156101000203166002900480156126365780601f1061260b57610100808354040283529160200191612636565b820191906000526020600020905b81548152906001019060200180831161261957829003601f168201915b505050505090806004018054600181600116156101000203166002900480601f0160208091040260200160405190810160405280929190818152602001828054600181600116156101000203166002900480156126d45780601f106126a9576101008083540402835291602001916126d4565b820191906000526020600020905b8154815290600101906020018083116126b757829003601f168201915b505050505090806005018054600181600116156101000203166002900480601f0160208091040260200160405190810160405280929190818152602001828054600181600116156101000203166002900480156127725780601f1061274757610100808354040283529160200191612772565b820191906000526020600020905b81548152906001019060200180831161275557829003601f168201915b5050505050908060060154908060070160009054906101000a900473ffffffffffffffffffffffffffffffffffffffff1690806008018054600181600116156101000203166002900480601f01602080910402602001604051908101604052809291908181526020018280546001816001161561010002031660029004801561283c5780601f106128115761010080835404028352916020019161283c565b820191906000526020600020905b81548152906001019060200180831161281f57829003601f168201915b5050505050908060090160009054906101000a900460ff1690508a565b600081511161286757600080fd5b60016004600084815260200190815260200160002060090160006101000a81548160ff0219169083151502179055505050565b828054600181600116156101000203166002900490600052602060002090601f016020900481019282601f106128db57805160ff1916838001178555612909565b82800160010185558215612909579182015b828111156129085782518255916020019190600101906128ed565b5b5090506129169190612a69565b5090565b828054600181600116156101000203166002900490600052602060002090601f016020900481019282601f106129535780548555612990565b8280016001018555821561299057600052602060002091601f016020900482015b8281111561298f578254825591600101919060010190612974565b5b50905061299d9190612a69565b5090565b50805460018160011615610100020316600290046000825580601f106129c757506129e6565b601f0160209004906000526020600020908101906129e59190612a69565b5b50565b828054600181600116156101000203166002900490600052602060002090601f016020900481019282601f10612a2a57805160ff1916838001178555612a58565b82800160010185558215612a58579182015b82811115612a57578251825591602001919060010190612a3c565b5b509050612a659190612a69565b5090565b612a8b91905b80821115612a87576000816000905550600101612a6f565b5090565b9056fea265627a7a72315820725a11aa91e5669be52cb6df1956fe01ebb091f02d8187af523ebb250853774f64736f6c63430005100032",
  "source": "pragma solidity ^0.5.0;\n\ncontract DStorage {\n  string public name = 'DStorage';\n  uint public fileCount = 0;\n  uint public trashCount = 0;\n  uint public folderCount = 0;\n\n  mapping(uint => File) public files;\n  mapping(uint => Folder) public folders;\n\n  mapping(uint => File) public trashFiles;\n  \n  struct File {\n    uint fileId;\n    string fileHash;\n    uint fileSize;\n    string fileType;\n    string fileName;\n    string fileDescription;\n    uint uploadTime;\n    address payable uploader;\n    string receivers;\n    bool starred;\n  }\n\n  struct Folder {\n    uint folderId;\n    string name;      // name of node\n    string data;    // list of nodes data(Files)\n    address payable uploader;\n    string receivers;\n  }\n\n  // struct Folder {\n  //   bytes32 name;      // name of node\n  //   bytes32 parent;    // parent nodes path\n  //   uint[] data;    // list of nodes data(Files)\n  //   bytes32[] folders; // list of linked folder's paths\n  //  }\n\n  event FileUploaded(\n    uint fileId,\n    string fileHash,\n    uint fileSize,\n    string fileType,\n    string fileName, \n    string fileDescription,\n    uint uploadTime,\n    address payable uploader,\n    string receivers,\n    bool starred\n  );\n\n  constructor() public {\n  }\n\n  function uploadFile(string memory _fileHash, uint _fileSize, string memory _fileType, string memory _fileName, string memory _fileDescription) public {\n    // Make sure the file hash exists\n    require(bytes(_fileHash).length > 0);\n    // Make sure file type exists\n    require(bytes(_fileType).length > 0);\n    // Make sure file description exists\n    require(bytes(_fileDescription).length > 0);\n    // Make sure file fileName exists\n    require(bytes(_fileName).length > 0);\n    // Make sure uploader address exists\n    require(msg.sender!=address(0));\n    // Make sure file size is more than 0\n    require(_fileSize>0);\n\n    // Increment file id\n    fileCount ++; \n\n    // Add File to the contract\n    files[fileCount] = File(fileCount, _fileHash, _fileSize, _fileType, _fileName, _fileDescription, now, msg.sender, '', false);\n    // Trigger an event\n    emit FileUploaded(fileCount, _fileHash, _fileSize, _fileType, _fileName, _fileDescription, now, msg.sender, '', false);\n  }\n\n  function starAFile(uint fileId, string memory _fileHash) public {\n    // Make sure the file hash exists\n    require(bytes(_fileHash).length > 0);\n\n    files[fileId].starred = true;\n  }\n\n  function unstarAFile(uint fileId, string memory _fileHash) public {\n    // Make sure the file hash exists\n    require(bytes(_fileHash).length > 0);\n\n    files[fileId].starred = false;\n  }\n\n  function deleteFile(uint fileId, string memory _fileHash) public {\n    // Make sure the file hash exists\n    require(bytes(_fileHash).length > 0);\n\n    // Moving to trash\n    trashCount++;\n    files[fileId].fileId = trashCount;\n    trashFiles[trashCount] = files[fileId];\n\n    delete files[fileId];   \n  }\n\n  function deleteFileForever(uint fileId, string memory _fileHash) public {\n    // Make sure the file hash exists\n    require(bytes(_fileHash).length > 0);\n\n    delete trashFiles[fileId];   \n  }\n\n  function emptyTrash(uint[] memory fileIds) public {\n    for(uint i=0;i<fileIds.length;i++) {\n      delete trashFiles[fileIds[i]];\n    }\n    trashCount=0;\n  }\n\n  // Folders (Single hierarchy)\n  function addFolder(string memory _name) public {\n    folderCount++;\n    folders[folderCount] = Folder(folderCount, _name, '', msg.sender, '');\n  }\n\n  function updateFiles(uint folderId, string memory _data) public {\n    folders[folderId].data = _data;\n  }\n\n  function remove(uint folderId) public {\n    // removes from folders\n    delete folders[folderId]; \n  }\n\n  /* Tree implementation for nested folders\n\n  function get(bytes32 _name, bytes32 _parent) public view returns (bytes32, bytes32, uint[] memory, bytes32[] memory) {\n    Folder storage folder = folders[keccak256(abi.encodePacked(_parent, _name))];\n    return (folder.name, folder.parent, folder.data, folder.folders);\n  }\n    \n  function addFolder(bytes32 _name, bytes32 _parent, uint[] memory _data) public {\n    require(_name.length > 0);\n    \n    bytes32 path = keccak256(abi.encodePacked(_parent, _name));\n    \n    folders[path] = Folder({\n      name: _name, \n      parent: _parent, \n      data: _data, \n      folders: new bytes32[](0),\n      receivers: new address[](0)\n    });\n    folders[_parent].folders.push(path);\n  }\n\n  function updateFiles(bytes32 _name, bytes32 _parent, uint[] memory _data) public {\n    require(_name.length > 0);\n    \n    bytes32 path = keccak256(abi.encodePacked(_parent, _name));\n    \n    Folder storage folder = folders[path];\n    \n    folder.data = _data;\n  }\n\n  // Can only remove leaves\n  function remove(bytes32 _name, bytes32 _parent) public {\n    bytes32 path = keccak256(abi.encodePacked(_parent, _name));\n    // allow to remove leaves (folder without linked folders)\n    require(folders[path].folders.length == 0);\n    // removes from folders\n    delete folders[path];\n    \n    // removes from parent list of folders\n    bytes32[] storage childs = folders[_parent].folders;\n    for (uint256 i = getIndex(childs, path); i < childs.length - 1; i++) {\n      childs[i] = childs[i + 1];\n    }\n    delete childs[childs.length - 1];\n    childs.length--;\n  }\n\n  function getIndex(bytes32[] memory childs, bytes32 _path) pure internal returns (uint256) {\n    for (uint256 i = 0; i < childs.length; i++) {\n      if (_path == childs[i]) {\n        return i;\n      }\n    }\n    return childs.length - 1;\n  }\n\n  */\n\n  function shareAFile(uint fileId, string memory _fileHash, string memory _receivers) public {\n    // Make sure the file hash exists\n    require(bytes(_fileHash).length > 0);\n\n    // Moving to Shared Files\n    files[fileId].receivers = _receivers;\n  }\n\n  function shareAFolder(uint folderId, string memory _receivers) public { \n    // Moving to Shared Folders\n    folders[folderId].receivers = _receivers;\n  }\n}",
  "sourcePath": "C:\\Users\\shahv\\Desktop\\VDrive\\src\\contracts\\DStorage.sol",
  "compiler": {
    "name": "solc",
    "version": "0.5.16+commit.9c3226ce.Emscripten.clang"
  },
  "schemaVersion": "3.0.23",
  "updatedAt": "2021-06-25T15:41:09.194Z",
  "networkType": "ethereum",
  "devdoc": {
    "methods": {}
  },
  "userdoc": {
    "methods": {}
  }
}