{
  "contractName": "DStorage",
  "abi": [
    {
      "inputs": [
        {
          "internalType": "contract EthSwap",
          "name": "_token",
          "type": "address"
        }
      ],
      "payable": false,
      "stateMutability": "nonpayable",
      "type": "constructor"
    },
    {
      "anonymous": false,
      "inputs": [
        {
          "indexed": false,
          "internalType": "uint256",
          "name": "fileId",
          "type": "uint256"
        },
        {
          "indexed": false,
          "internalType": "string",
          "name": "fileHash",
          "type": "string"
        },
        {
          "indexed": false,
          "internalType": "uint256",
          "name": "fileSize",
          "type": "uint256"
        },
        {
          "indexed": false,
          "internalType": "string",
          "name": "fileType",
          "type": "string"
        },
        {
          "indexed": false,
          "internalType": "string",
          "name": "fileName",
          "type": "string"
        },
        {
          "indexed": false,
          "internalType": "string",
          "name": "fileDescription",
          "type": "string"
        },
        {
          "indexed": false,
          "internalType": "uint256",
          "name": "uploadTime",
          "type": "uint256"
        },
        {
          "indexed": false,
          "internalType": "address payable",
          "name": "uploader",
          "type": "address"
        },
        {
          "indexed": false,
          "internalType": "string",
          "name": "receivers",
          "type": "string"
        },
        {
          "indexed": false,
          "internalType": "bool",
          "name": "starred",
          "type": "bool"
        }
      ],
      "name": "FileUploaded",
      "type": "event"
    },
    {
      "constant": true,
      "inputs": [],
      "name": "ethSwap",
      "outputs": [
        {
          "internalType": "contract EthSwap",
          "name": "",
          "type": "address"
        }
      ],
      "payable": false,
      "stateMutability": "view",
      "type": "function"
    },
    {
      "constant": true,
      "inputs": [],
      "name": "fileCount",
      "outputs": [
        {
          "internalType": "uint256",
          "name": "",
          "type": "uint256"
        }
      ],
      "payable": false,
      "stateMutability": "view",
      "type": "function"
    },
    {
      "constant": true,
      "inputs": [
        {
          "internalType": "uint256",
          "name": "",
          "type": "uint256"
        }
      ],
      "name": "files",
      "outputs": [
        {
          "internalType": "uint256",
          "name": "fileId",
          "type": "uint256"
        },
        {
          "internalType": "string",
          "name": "fileHash",
          "type": "string"
        },
        {
          "internalType": "uint256",
          "name": "fileSize",
          "type": "uint256"
        },
        {
          "internalType": "string",
          "name": "fileType",
          "type": "string"
        },
        {
          "internalType": "string",
          "name": "fileName",
          "type": "string"
        },
        {
          "internalType": "string",
          "name": "fileDescription",
          "type": "string"
        },
        {
          "internalType": "uint256",
          "name": "uploadTime",
          "type": "uint256"
        },
        {
          "internalType": "address payable",
          "name": "uploader",
          "type": "address"
        },
        {
          "internalType": "string",
          "name": "receivers",
          "type": "string"
        },
        {
          "internalType": "bool",
          "name": "starred",
          "type": "bool"
        }
      ],
      "payable": false,
      "stateMutability": "view",
      "type": "function"
    },
    {
      "constant": true,
      "inputs": [],
      "name": "folderCount",
      "outputs": [
        {
          "internalType": "uint256",
          "name": "",
          "type": "uint256"
        }
      ],
      "payable": false,
      "stateMutability": "view",
      "type": "function"
    },
    {
      "constant": true,
      "inputs": [
        {
          "internalType": "uint256",
          "name": "",
          "type": "uint256"
        }
      ],
      "name": "folders",
      "outputs": [
        {
          "internalType": "uint256",
          "name": "folderId",
          "type": "uint256"
        },
        {
          "internalType": "string",
          "name": "name",
          "type": "string"
        },
        {
          "internalType": "string",
          "name": "data",
          "type": "string"
        },
        {
          "internalType": "address payable",
          "name": "uploader",
          "type": "address"
        },
        {
          "internalType": "string",
          "name": "receivers",
          "type": "string"
        }
      ],
      "payable": false,
      "stateMutability": "view",
      "type": "function"
    },
    {
      "constant": true,
      "inputs": [],
      "name": "name",
      "outputs": [
        {
          "internalType": "string",
          "name": "",
          "type": "string"
        }
      ],
      "payable": false,
      "stateMutability": "view",
      "type": "function"
    },
    {
      "constant": true,
      "inputs": [
        {
          "internalType": "address",
          "name": "",
          "type": "address"
        }
      ],
      "name": "totalSize",
      "outputs": [
        {
          "internalType": "uint256",
          "name": "",
          "type": "uint256"
        }
      ],
      "payable": false,
      "stateMutability": "view",
      "type": "function"
    },
    {
      "constant": true,
      "inputs": [],
      "name": "trashCount",
      "outputs": [
        {
          "internalType": "uint256",
          "name": "",
          "type": "uint256"
        }
      ],
      "payable": false,
      "stateMutability": "view",
      "type": "function"
    },
    {
      "constant": true,
      "inputs": [
        {
          "internalType": "uint256",
          "name": "",
          "type": "uint256"
        }
      ],
      "name": "trashFiles",
      "outputs": [
        {
          "internalType": "uint256",
          "name": "fileId",
          "type": "uint256"
        },
        {
          "internalType": "string",
          "name": "fileHash",
          "type": "string"
        },
        {
          "internalType": "uint256",
          "name": "fileSize",
          "type": "uint256"
        },
        {
          "internalType": "string",
          "name": "fileType",
          "type": "string"
        },
        {
          "internalType": "string",
          "name": "fileName",
          "type": "string"
        },
        {
          "internalType": "string",
          "name": "fileDescription",
          "type": "string"
        },
        {
          "internalType": "uint256",
          "name": "uploadTime",
          "type": "uint256"
        },
        {
          "internalType": "address payable",
          "name": "uploader",
          "type": "address"
        },
        {
          "internalType": "string",
          "name": "receivers",
          "type": "string"
        },
        {
          "internalType": "bool",
          "name": "starred",
          "type": "bool"
        }
      ],
      "payable": false,
      "stateMutability": "view",
      "type": "function"
    },
    {
      "constant": false,
      "inputs": [
        {
          "internalType": "string",
          "name": "_fileHash",
          "type": "string"
        },
        {
          "internalType": "uint256",
          "name": "_fileSize",
          "type": "uint256"
        },
        {
          "internalType": "string",
          "name": "_fileType",
          "type": "string"
        },
        {
          "internalType": "string",
          "name": "_fileName",
          "type": "string"
        },
        {
          "internalType": "string",
          "name": "_fileDescription",
          "type": "string"
        }
      ],
      "name": "uploadFile",
      "outputs": [],
      "payable": false,
      "stateMutability": "nonpayable",
      "type": "function"
    },
    {
      "constant": false,
      "inputs": [
        {
          "internalType": "uint256",
          "name": "fileId",
          "type": "uint256"
        },
        {
          "internalType": "string",
          "name": "_fileHash",
          "type": "string"
        }
      ],
      "name": "starAFile",
      "outputs": [],
      "payable": false,
      "stateMutability": "nonpayable",
      "type": "function"
    },
    {
      "constant": false,
      "inputs": [
        {
          "internalType": "uint256",
          "name": "fileId",
          "type": "uint256"
        },
        {
          "internalType": "string",
          "name": "_fileHash",
          "type": "string"
        }
      ],
      "name": "unstarAFile",
      "outputs": [],
      "payable": false,
      "stateMutability": "nonpayable",
      "type": "function"
    },
    {
      "constant": false,
      "inputs": [
        {
          "internalType": "uint256",
          "name": "fileId",
          "type": "uint256"
        },
        {
          "internalType": "string",
          "name": "_fileHash",
          "type": "string"
        }
      ],
      "name": "deleteFile",
      "outputs": [],
      "payable": false,
      "stateMutability": "nonpayable",
      "type": "function"
    },
    {
      "constant": false,
      "inputs": [
        {
          "internalType": "uint256",
          "name": "fileId",
          "type": "uint256"
        },
        {
          "internalType": "string",
          "name": "_fileHash",
          "type": "string"
        }
      ],
      "name": "restoreFile",
      "outputs": [],
      "payable": false,
      "stateMutability": "nonpayable",
      "type": "function"
    },
    {
      "constant": false,
      "inputs": [
        {
          "internalType": "uint256",
          "name": "fileId",
          "type": "uint256"
        },
        {
          "internalType": "string",
          "name": "_fileHash",
          "type": "string"
        }
      ],
      "name": "deleteFileForever",
      "outputs": [],
      "payable": false,
      "stateMutability": "nonpayable",
      "type": "function"
    },
    {
      "constant": false,
      "inputs": [
        {
          "internalType": "uint256[]",
          "name": "fileIds",
          "type": "uint256[]"
        }
      ],
      "name": "emptyTrash",
      "outputs": [],
      "payable": false,
      "stateMutability": "nonpayable",
      "type": "function"
    },
    {
      "constant": false,
      "inputs": [
        {
          "internalType": "string",
          "name": "_name",
          "type": "string"
        }
      ],
      "name": "addFolder",
      "outputs": [],
      "payable": false,
      "stateMutability": "nonpayable",
      "type": "function"
    },
    {
      "constant": false,
      "inputs": [
        {
          "internalType": "uint256",
          "name": "folderId",
          "type": "uint256"
        },
        {
          "internalType": "string",
          "name": "_data",
          "type": "string"
        }
      ],
      "name": "updateFiles",
      "outputs": [],
      "payable": false,
      "stateMutability": "nonpayable",
      "type": "function"
    },
    {
      "constant": false,
      "inputs": [
        {
          "internalType": "uint256",
          "name": "folderId",
          "type": "uint256"
        }
      ],
      "name": "remove",
      "outputs": [],
      "payable": false,
      "stateMutability": "nonpayable",
      "type": "function"
    },
    {
      "constant": false,
      "inputs": [
        {
          "internalType": "uint256",
          "name": "fileId",
          "type": "uint256"
        },
        {
          "internalType": "string",
          "name": "_fileHash",
          "type": "string"
        },
        {
          "internalType": "string",
          "name": "_receivers",
          "type": "string"
        }
      ],
      "name": "shareAFile",
      "outputs": [],
      "payable": false,
      "stateMutability": "nonpayable",
      "type": "function"
    },
    {
      "constant": false,
      "inputs": [
        {
          "internalType": "uint256",
          "name": "folderId",
          "type": "uint256"
        },
        {
          "internalType": "string",
          "name": "_receivers",
          "type": "string"
        }
      ],
      "name": "shareAFolder",
      "outputs": [],
      "payable": false,
      "stateMutability": "nonpayable",
      "type": "function"
    },
    {
      "constant": false,
      "inputs": [
        {
          "internalType": "uint256",
          "name": "amt",
          "type": "uint256"
        },
        {
          "internalType": "uint256",
          "name": "tokenAmt",
          "type": "uint256"
        }
      ],
      "name": "buyStorage",
      "outputs": [],
      "payable": false,
      "stateMutability": "nonpayable",
      "type": "function"
    },
    {
      "constant": false,
      "inputs": [
        {
          "internalType": "uint256",
          "name": "tokenAmt",
          "type": "uint256"
        },
        {
          "internalType": "address",
          "name": "receiver",
          "type": "address"
        }
      ],
      "name": "withdrawTokens",
      "outputs": [],
      "payable": false,
      "stateMutability": "nonpayable",
      "type": "function"
    }
  ],
  "bytecode": "0x60806040526040518060400160405280600881526020017f4453746f7261676500000000000000000000000000000000000000000000000081525060009080519060200190620000519291906200012e565b506000600355600060045560006005553480156200006e57600080fd5b50604051620033e6380380620033e6833981810160405260208110156200009457600080fd5b810190808051906020019092919050505080600160006101000a81548173ffffffffffffffffffffffffffffffffffffffff021916908373ffffffffffffffffffffffffffffffffffffffff16021790555033600260006101000a81548173ffffffffffffffffffffffffffffffffffffffff021916908373ffffffffffffffffffffffffffffffffffffffff16021790555050620001dd565b828054600181600116156101000203166002900490600052602060002090601f016020900481019282601f106200017157805160ff1916838001178555620001a2565b82800160010185558215620001a2579182015b82811115620001a157825182559160200191906001019062000184565b5b509050620001b19190620001b5565b5090565b620001da91905b80821115620001d6576000816000905550600101620001bc565b5090565b90565b6131f980620001ed6000396000f3fe608060405234801561001057600080fd5b506004361061014d5760003560e01c80634cc82215116100c3578063c343d0dd1161007c578063c343d0dd14610d13578063d5d7cbe514610dd8578063e82d9d3314610e90578063ee48bf961461111a578063f4c714b4146111df578063f4e28315146114895761014d565b80634cc8221514610822578063536722e7146108505780635ef0ac2e14610a095780637a0a044c14610ac457806385ac4f3e14610b89578063c29082c914610c4e5761014d565b80633260f1a1116101155780633260f1a114610498578063373ddf4d146104b6578063398d92bb146107605780633b962c53146107ae57806343953519146107e657806344bad349146108045761014d565b806306fdde031461015257806310e72591146101d55780632705b8ad1461033157806330a67f1f1461038957806330f60c021461044e575b600080fd5b61015a61154e565b6040518080602001828103825283818151815260200191508051906020019080838360005b8381101561019a57808201518184015260208101905061017f565b50505050905090810190601f1680156101c75780820380516001836020036101000a031916815260200191505b509250505060405180910390f35b61032f600480360360608110156101eb57600080fd5b81019080803590602001909291908035906020019064010000000081111561021257600080fd5b82018360208201111561022457600080fd5b8035906020019184600183028401116401000000008311171561024657600080fd5b91908080601f016020809104026020016040519081016040528093929190818152602001838380828437600081840152601f19601f820116905080830192505050505050509192919290803590602001906401000000008111156102a957600080fd5b8201836020820111156102bb57600080fd5b803590602001918460018302840111640100000000831117156102dd57600080fd5b91908080601f016020809104026020016040519081016040528093929190818152602001838380828437600081840152601f19601f8201169050808301925050505050505091929192905050506115ec565b005b6103736004803603602081101561034757600080fd5b81019080803573ffffffffffffffffffffffffffffffffffffffff16906020019092919050505061162a565b6040518082815260200191505060405180910390f35b61044c6004803603604081101561039f57600080fd5b8101908080359060200190929190803590602001906401000000008111156103c657600080fd5b8201836020820111156103d857600080fd5b803590602001918460018302840111640100000000831117156103fa57600080fd5b91908080601f016020809104026020016040519081016040528093929190818152602001838380828437600081840152601f19601f820116905080830192505050505050509192919290505050611642565b005b6104566118e1565b604051808273ffffffffffffffffffffffffffffffffffffffff1673ffffffffffffffffffffffffffffffffffffffff16815260200191505060405180910390f35b6104a0611907565b6040518082815260200191505060405180910390f35b6104e2600480360360208110156104cc57600080fd5b810190808035906020019092919050505061190d565b604051808b8152602001806020018a81526020018060200180602001806020018981526020018873ffffffffffffffffffffffffffffffffffffffff1673ffffffffffffffffffffffffffffffffffffffff168152602001806020018715151515815260200186810386528f818151815260200191508051906020019080838360005b83811015610580578082015181840152602081019050610565565b50505050905090810190601f1680156105ad5780820380516001836020036101000a031916815260200191505b5086810385528d818151815260200191508051906020019080838360005b838110156105e65780820151818401526020810190506105cb565b50505050905090810190601f1680156106135780820380516001836020036101000a031916815260200191505b5086810384528c818151815260200191508051906020019080838360005b8381101561064c578082015181840152602081019050610631565b50505050905090810190601f1680156106795780820380516001836020036101000a031916815260200191505b5086810383528b818151815260200191508051906020019080838360005b838110156106b2578082015181840152602081019050610697565b50505050905090810190601f1680156106df5780820380516001836020036101000a031916815260200191505b50868103825288818151815260200191508051906020019080838360005b838110156107185780820151818401526020810190506106fd565b50505050905090810190601f1680156107455780820380516001836020036101000a031916815260200191505b509f5050505050505050505050505050505060405180910390f35b6107ac6004803603604081101561077657600080fd5b8101908080359060200190929190803573ffffffffffffffffffffffffffffffffffffffff169060200190929190505050611c86565b005b6107e4600480360360408110156107c457600080fd5b810190808035906020019092919080359060200190929190505050611da5565b005b6107ee611ebb565b6040518082815260200191505060405180910390f35b61080c611ec1565b6040518082815260200191505060405180910390f35b61084e6004803603602081101561083857600080fd5b8101908080359060200190929190505050611ec7565b005b61087c6004803603602081101561086657600080fd5b8101908080359060200190929190505050611f3f565b6040518086815260200180602001806020018573ffffffffffffffffffffffffffffffffffffffff1673ffffffffffffffffffffffffffffffffffffffff16815260200180602001848103845288818151815260200191508051906020019080838360005b838110156108fc5780820151818401526020810190506108e1565b50505050905090810190601f1680156109295780820380516001836020036101000a031916815260200191505b50848103835287818151815260200191508051906020019080838360005b83811015610962578082015181840152602081019050610947565b50505050905090810190601f16801561098f5780820380516001836020036101000a031916815260200191505b50848103825285818151815260200191508051906020019080838360005b838110156109c85780820151818401526020810190506109ad565b50505050905090810190601f1680156109f55780820380516001836020036101000a031916815260200191505b509850505050505050505060405180910390f35b610ac260048036036020811015610a1f57600080fd5b8101908080359060200190640100000000811115610a3c57600080fd5b820183602082011115610a4e57600080fd5b80359060200191846001830284011164010000000083111715610a7057600080fd5b91908080601f016020809104026020016040519081016040528093929190818152602001838380828437600081840152601f19601f82011690508083019250505050505050919291929050505061215d565b005b610b8760048036036040811015610ada57600080fd5b810190808035906020019092919080359060200190640100000000811115610b0157600080fd5b820183602082011115610b1357600080fd5b80359060200191846001830284011164010000000083111715610b3557600080fd5b91908080601f016020809104026020016040519081016040528093929190818152602001838380828437600081840152601f19601f82011690508083019250505050505050919291929050505061228f565b005b610c4c60048036036040811015610b9f57600080fd5b810190808035906020019092919080359060200190640100000000811115610bc657600080fd5b820183602082011115610bd857600080fd5b80359060200191846001830284011164010000000083111715610bfa57600080fd5b91908080601f016020809104026020016040519081016040528093929190818152602001838380828437600081840152601f19601f8201169050808301925050505050505091929192905050506122d0565b005b610d1160048036036040811015610c6457600080fd5b810190808035906020019092919080359060200190640100000000811115610c8b57600080fd5b820183602082011115610c9d57600080fd5b80359060200191846001830284011164010000000083111715610cbf57600080fd5b91908080601f016020809104026020016040519081016040528093929190818152602001838380828437600081840152601f19601f82011690508083019250505050505050919291929050505061239b565b005b610dd660048036036040811015610d2957600080fd5b810190808035906020019092919080359060200190640100000000811115610d5057600080fd5b820183602082011115610d6257600080fd5b80359060200191846001830284011164010000000083111715610d8457600080fd5b91908080601f016020809104026020016040519081016040528093929190818152602001838380828437600081840152601f19601f8201169050808301925050505050505091929192905050506123ca565b005b610e8e60048036036020811015610dee57600080fd5b8101908080359060200190640100000000811115610e0b57600080fd5b820183602082011115610e1d57600080fd5b80359060200191846020830284011164010000000083111715610e3f57600080fd5b919080806020026020016040519081016040528093929190818152602001838360200280828437600081840152601f19601f820116905080830192505050505050509192919290505050612669565b005b611118600480360360a0811015610ea657600080fd5b8101908080359060200190640100000000811115610ec357600080fd5b820183602082011115610ed557600080fd5b80359060200191846001830284011164010000000083111715610ef757600080fd5b91908080601f016020809104026020016040519081016040528093929190818152602001838380828437600081840152601f19601f8201169050808301925050505050505091929192908035906020019092919080359060200190640100000000811115610f6457600080fd5b820183602082011115610f7657600080fd5b80359060200191846001830284011164010000000083111715610f9857600080fd5b91908080601f016020809104026020016040519081016040528093929190818152602001838380828437600081840152601f19601f82011690508083019250505050505050919291929080359060200190640100000000811115610ffb57600080fd5b82018360208201111561100d57600080fd5b8035906020019184600183028401116401000000008311171561102f57600080fd5b91908080601f016020809104026020016040519081016040528093929190818152602001838380828437600081840152601f19601f8201169050808301925050505050505091929192908035906020019064010000000081111561109257600080fd5b8201836020820111156110a457600080fd5b803590602001918460018302840111640100000000831117156110c657600080fd5b91908080601f016020809104026020016040519081016040528093929190818152602001838380828437600081840152601f19601f82011690508083019250505050505050919291929050505061275d565b005b6111dd6004803603604081101561113057600080fd5b81019080803590602001909291908035906020019064010000000081111561115757600080fd5b82018360208201111561116957600080fd5b8035906020019184600183028401116401000000008311171561118b57600080fd5b91908080601f016020809104026020016040519081016040528093929190818152602001838380828437600081840152601f19601f820116905080830192505050505050509192919290505050612be7565b005b61120b600480360360208110156111f557600080fd5b8101908080359060200190929190505050612c16565b604051808b8152602001806020018a81526020018060200180602001806020018981526020018873ffffffffffffffffffffffffffffffffffffffff1673ffffffffffffffffffffffffffffffffffffffff168152602001806020018715151515815260200186810386528f818151815260200191508051906020019080838360005b838110156112a957808201518184015260208101905061128e565b50505050905090810190601f1680156112d65780820380516001836020036101000a031916815260200191505b5086810385528d818151815260200191508051906020019080838360005b8381101561130f5780820151818401526020810190506112f4565b50505050905090810190601f16801561133c5780820380516001836020036101000a031916815260200191505b5086810384528c818151815260200191508051906020019080838360005b8381101561137557808201518184015260208101905061135a565b50505050905090810190601f1680156113a25780820380516001836020036101000a031916815260200191505b5086810383528b818151815260200191508051906020019080838360005b838110156113db5780820151818401526020810190506113c0565b50505050905090810190601f1680156114085780820380516001836020036101000a031916815260200191505b50868103825288818151815260200191508051906020019080838360005b83811015611441578082015181840152602081019050611426565b50505050905090810190601f16801561146e5780820380516001836020036101000a031916815260200191505b509f5050505050505050505050505050505060405180910390f35b61154c6004803603604081101561149f57600080fd5b8101908080359060200190929190803590602001906401000000008111156114c657600080fd5b8201836020820111156114d857600080fd5b803590602001918460018302840111640100000000831117156114fa57600080fd5b91908080601f016020809104026020016040519081016040528093929190818152602001838380828437600081840152601f19601f820116905080830192505050505050509192919290505050612f8f565b005b60008054600181600116156101000203166002900480601f0160208091040260200160405190810160405280929190818152602001828054600181600116156101000203166002900480156115e45780601f106115b9576101008083540402835291602001916115e4565b820191906000526020600020905b8154815290600101906020018083116115c757829003601f168201915b505050505081565b60008251116115fa57600080fd5b80600660008581526020019081526020016000206008019080519060200190611624929190612fd0565b50505050565b60096020528060005260406000206000915090505481565b600081511161165057600080fd5b60046000815480929190600101919050555060045460066000848152602001908152602001600020600001819055506006600083815260200190815260200160002060086000600454815260200190815260200160002060008201548160000155600182018160010190805460018160011615610100020316600290046116d8929190613050565b50600282015481600201556003820181600301908054600181600116156101000203166002900461170a929190613050565b5060048201816004019080546001816001161561010002031660029004611732929190613050565b506005820181600501908054600181600116156101000203166002900461175a929190613050565b50600682015481600601556007820160009054906101000a900473ffffffffffffffffffffffffffffffffffffffff168160070160006101000a81548173ffffffffffffffffffffffffffffffffffffffff021916908373ffffffffffffffffffffffffffffffffffffffff160217905550600882018160080190805460018160011615610100020316600290046117f3929190613050565b506009820160009054906101000a900460ff168160090160006101000a81548160ff0219169083151502179055509050506006600083815260200190815260200160002060008082016000905560018201600061185091906130d7565b600282016000905560038201600061186891906130d7565b60048201600061187891906130d7565b60058201600061188891906130d7565b60068201600090556007820160006101000a81549073ffffffffffffffffffffffffffffffffffffffff02191690556008820160006118c791906130d7565b6009820160006101000a81549060ff021916905550505050565b600160009054906101000a900473ffffffffffffffffffffffffffffffffffffffff1681565b60045481565b6008602052806000526040600020600091509050806000015490806001018054600181600116156101000203166002900480601f0160208091040260200160405190810160405280929190818152602001828054600181600116156101000203166002900480156119bf5780601f10611994576101008083540402835291602001916119bf565b820191906000526020600020905b8154815290600101906020018083116119a257829003601f168201915b505050505090806002015490806003018054600181600116156101000203166002900480601f016020809104026020016040519081016040528092919081815260200182805460018160011615610100020316600290048015611a635780601f10611a3857610100808354040283529160200191611a63565b820191906000526020600020905b815481529060010190602001808311611a4657829003601f168201915b505050505090806004018054600181600116156101000203166002900480601f016020809104026020016040519081016040528092919081815260200182805460018160011615610100020316600290048015611b015780601f10611ad657610100808354040283529160200191611b01565b820191906000526020600020905b815481529060010190602001808311611ae457829003601f168201915b505050505090806005018054600181600116156101000203166002900480601f016020809104026020016040519081016040528092919081815260200182805460018160011615610100020316600290048015611b9f5780601f10611b7457610100808354040283529160200191611b9f565b820191906000526020600020905b815481529060010190602001808311611b8257829003601f168201915b5050505050908060060154908060070160009054906101000a900473ffffffffffffffffffffffffffffffffffffffff1690806008018054600181600116156101000203166002900480601f016020809104026020016040519081016040528092919081815260200182805460018160011615610100020316600290048015611c695780601f10611c3e57610100808354040283529160200191611c69565b820191906000526020600020905b815481529060010190602001808311611c4c57829003601f168201915b5050505050908060090160009054906101000a900460ff1690508a565b600260009054906101000a900473ffffffffffffffffffffffffffffffffffffffff1673ffffffffffffffffffffffffffffffffffffffff163373ffffffffffffffffffffffffffffffffffffffff1614611ce057600080fd5b600160009054906101000a900473ffffffffffffffffffffffffffffffffffffffff1673ffffffffffffffffffffffffffffffffffffffff1663c548bce883836040518363ffffffff1660e01b8152600401808381526020018273ffffffffffffffffffffffffffffffffffffffff1673ffffffffffffffffffffffffffffffffffffffff16815260200192505050600060405180830381600087803b158015611d8957600080fd5b505af1158015611d9d573d6000803e3d6000fd5b505050505050565b600160009054906101000a900473ffffffffffffffffffffffffffffffffffffffff1673ffffffffffffffffffffffffffffffffffffffff1663d433ea0f826040518263ffffffff1660e01b815260040180828152602001915050600060405180830381600087803b158015611e1a57600080fd5b505af1158015611e2e573d6000803e3d6000fd5b5050505081600960003373ffffffffffffffffffffffffffffffffffffffff1673ffffffffffffffffffffffffffffffffffffffff1681526020019081526020016000205401600960003373ffffffffffffffffffffffffffffffffffffffff1673ffffffffffffffffffffffffffffffffffffffff168152602001908152602001600020819055505050565b60035481565b60055481565b60076000828152602001908152602001600020600080820160009055600182016000611ef391906130d7565b600282016000611f0391906130d7565b6003820160006101000a81549073ffffffffffffffffffffffffffffffffffffffff0219169055600482016000611f3a91906130d7565b505050565b6007602052806000526040600020600091509050806000015490806001018054600181600116156101000203166002900480601f016020809104026020016040519081016040528092919081815260200182805460018160011615610100020316600290048015611ff15780601f10611fc657610100808354040283529160200191611ff1565b820191906000526020600020905b815481529060010190602001808311611fd457829003601f168201915b505050505090806002018054600181600116156101000203166002900480601f01602080910402602001604051908101604052809291908181526020018280546001816001161561010002031660029004801561208f5780601f106120645761010080835404028352916020019161208f565b820191906000526020600020905b81548152906001019060200180831161207257829003601f168201915b5050505050908060030160009054906101000a900473ffffffffffffffffffffffffffffffffffffffff1690806004018054600181600116156101000203166002900480601f0160208091040260200160405190810160405280929190818152602001828054600181600116156101000203166002900480156121535780601f1061212857610100808354040283529160200191612153565b820191906000526020600020905b81548152906001019060200180831161213657829003601f168201915b5050505050905085565b6005600081548092919060010191905055506040518060a0016040528060055481526020018281526020016040518060200160405280600081525081526020013373ffffffffffffffffffffffffffffffffffffffff1681526020016040518060200160405280600081525081525060076000600554815260200190815260200160002060008201518160000155602082015181600101908051906020019061220792919061311f565b50604082015181600201908051906020019061222492919061311f565b5060608201518160030160006101000a81548173ffffffffffffffffffffffffffffffffffffffff021916908373ffffffffffffffffffffffffffffffffffffffff160217905550608082015181600401908051906020019061228892919061311f565b5090505050565b600081511161229d57600080fd5b60006006600084815260200190815260200160002060090160006101000a81548160ff0219169083151502179055505050565b60008151116122de57600080fd5b6008600083815260200190815260200160002060008082016000905560018201600061230a91906130d7565b600282016000905560038201600061232291906130d7565b60048201600061233291906130d7565b60058201600061234291906130d7565b60068201600090556007820160006101000a81549073ffffffffffffffffffffffffffffffffffffffff021916905560088201600061238191906130d7565b6009820160006101000a81549060ff021916905550505050565b806007600084815260200190815260200160002060020190805190602001906123c5929190612fd0565b505050565b60008151116123d857600080fd5b6003600081548092919060010191905055506003546008600084815260200190815260200160002060000181905550600860008381526020019081526020016000206006600060035481526020019081526020016000206000820154816000015560018201816001019080546001816001161561010002031660029004612460929190613050565b506002820154816002015560038201816003019080546001816001161561010002031660029004612492929190613050565b50600482018160040190805460018160011615610100020316600290046124ba929190613050565b50600582018160050190805460018160011615610100020316600290046124e2929190613050565b50600682015481600601556007820160009054906101000a900473ffffffffffffffffffffffffffffffffffffffff168160070160006101000a81548173ffffffffffffffffffffffffffffffffffffffff021916908373ffffffffffffffffffffffffffffffffffffffff1602179055506008820181600801908054600181600116156101000203166002900461257b929190613050565b506009820160009054906101000a900460ff168160090160006101000a81548160ff021916908315150217905550905050600860008381526020019081526020016000206000808201600090556001820160006125d891906130d7565b60028201600090556003820160006125f091906130d7565b60048201600061260091906130d7565b60058201600061261091906130d7565b60068201600090556007820160006101000a81549073ffffffffffffffffffffffffffffffffffffffff021916905560088201600061264f91906130d7565b6009820160006101000a81549060ff021916905550505050565b60008090505b8151811015612751576008600083838151811061268857fe5b602002602001015181526020019081526020016000206000808201600090556001820160006126b791906130d7565b60028201600090556003820160006126cf91906130d7565b6004820160006126df91906130d7565b6005820160006126ef91906130d7565b60068201600090556007820160006101000a81549073ffffffffffffffffffffffffffffffffffffffff021916905560088201600061272e91906130d7565b6009820160006101000a81549060ff02191690555050808060010191505061266f565b50600060048190555050565b600085511161276b57600080fd5b600083511161277957600080fd5b600081511161278757600080fd5b600082511161279557600080fd5b600073ffffffffffffffffffffffffffffffffffffffff163373ffffffffffffffffffffffffffffffffffffffff1614156127cf57600080fd5b600084116127dc57600080fd5b60036000815480929190600101919050555060405180610140016040528060035481526020018681526020018581526020018481526020018381526020018281526020014281526020013373ffffffffffffffffffffffffffffffffffffffff1681526020016040518060200160405280600081525081526020016000151581525060066000600354815260200190815260200160002060008201518160000155602082015181600101908051906020019061289992919061311f565b506040820151816002015560608201518160030190805190602001906128c092919061311f565b5060808201518160040190805190602001906128dd92919061311f565b5060a08201518160050190805190602001906128fa92919061311f565b5060c0820151816006015560e08201518160070160006101000a81548173ffffffffffffffffffffffffffffffffffffffff021916908373ffffffffffffffffffffffffffffffffffffffff16021790555061010082015181600801908051906020019061296992919061311f565b506101208201518160090160006101000a81548160ff0219169083151502179055509050507f1b491f28c37a9ffd4d706279ccf7d75121a6ba53cad2dc6475e951a1431f1396600354868686868642336000604051808a8152602001806020018981526020018060200180602001806020018881526020018773ffffffffffffffffffffffffffffffffffffffff1673ffffffffffffffffffffffffffffffffffffffff168152602001806020018715151515815260200186810386528e818151815260200191508051906020019080838360005b83811015612a59578082015181840152602081019050612a3e565b50505050905090810190601f168015612a865780820380516001836020036101000a031916815260200191505b5086810385528c818151815260200191508051906020019080838360005b83811015612abf578082015181840152602081019050612aa4565b50505050905090810190601f168015612aec5780820380516001836020036101000a031916815260200191505b5086810384528b818151815260200191508051906020019080838360005b83811015612b25578082015181840152602081019050612b0a565b50505050905090810190601f168015612b525780820380516001836020036101000a031916815260200191505b5086810383528a818151815260200191508051906020019080838360005b83811015612b8b578082015181840152602081019050612b70565b50505050905090810190601f168015612bb85780820380516001836020036101000a031916815260200191505b508681038252600081526020016020019e50505050505050505050505050505060405180910390a15050505050565b80600760008481526020019081526020016000206004019080519060200190612c11929190612fd0565b505050565b6006602052806000526040600020600091509050806000015490806001018054600181600116156101000203166002900480601f016020809104026020016040519081016040528092919081815260200182805460018160011615610100020316600290048015612cc85780601f10612c9d57610100808354040283529160200191612cc8565b820191906000526020600020905b815481529060010190602001808311612cab57829003601f168201915b505050505090806002015490806003018054600181600116156101000203166002900480601f016020809104026020016040519081016040528092919081815260200182805460018160011615610100020316600290048015612d6c5780601f10612d4157610100808354040283529160200191612d6c565b820191906000526020600020905b815481529060010190602001808311612d4f57829003601f168201915b505050505090806004018054600181600116156101000203166002900480601f016020809104026020016040519081016040528092919081815260200182805460018160011615610100020316600290048015612e0a5780601f10612ddf57610100808354040283529160200191612e0a565b820191906000526020600020905b815481529060010190602001808311612ded57829003601f168201915b505050505090806005018054600181600116156101000203166002900480601f016020809104026020016040519081016040528092919081815260200182805460018160011615610100020316600290048015612ea85780601f10612e7d57610100808354040283529160200191612ea8565b820191906000526020600020905b815481529060010190602001808311612e8b57829003601f168201915b5050505050908060060154908060070160009054906101000a900473ffffffffffffffffffffffffffffffffffffffff1690806008018054600181600116156101000203166002900480601f016020809104026020016040519081016040528092919081815260200182805460018160011615610100020316600290048015612f725780601f10612f4757610100808354040283529160200191612f72565b820191906000526020600020905b815481529060010190602001808311612f5557829003601f168201915b5050505050908060090160009054906101000a900460ff1690508a565b6000815111612f9d57600080fd5b60016006600084815260200190815260200160002060090160006101000a81548160ff0219169083151502179055505050565b828054600181600116156101000203166002900490600052602060002090601f016020900481019282601f1061301157805160ff191683800117855561303f565b8280016001018555821561303f579182015b8281111561303e578251825591602001919060010190613023565b5b50905061304c919061319f565b5090565b828054600181600116156101000203166002900490600052602060002090601f016020900481019282601f1061308957805485556130c6565b828001600101855582156130c657600052602060002091601f016020900482015b828111156130c55782548255916001019190600101906130aa565b5b5090506130d3919061319f565b5090565b50805460018160011615610100020316600290046000825580601f106130fd575061311c565b601f01602090049060005260206000209081019061311b919061319f565b5b50565b828054600181600116156101000203166002900490600052602060002090601f016020900481019282601f1061316057805160ff191683800117855561318e565b8280016001018555821561318e579182015b8281111561318d578251825591602001919060010190613172565b5b50905061319b919061319f565b5090565b6131c191905b808211156131bd5760008160009055506001016131a5565b5090565b9056fea265627a7a72315820397a0707a36e98e94ba0cf25e822fa4acccbe197bd13a930ba1c455fe5976ef664736f6c63430005100032",
  "source": "pragma solidity ^0.5.0;\n\nimport \"./EthSwap.sol\";\n\ncontract DStorage {\n  string public name = 'DStorage';\n  EthSwap public ethSwap;\n\n  address private deployer;\n\n  uint public fileCount = 0;\n  uint public trashCount = 0;\n  uint public folderCount = 0;\n\n  mapping(uint => File) public files;\n  mapping(uint => Folder) public folders;\n\n  mapping(uint => File) public trashFiles;\n\n  mapping(address => uint) public totalSize;\n  \n  struct File {\n    uint fileId;\n    string fileHash;\n    uint fileSize;\n    string fileType;\n    string fileName;\n    string fileDescription;\n    uint uploadTime;\n    address payable uploader;\n    string receivers;\n    bool starred;\n  }\n\n  struct Folder {\n    uint folderId;\n    string name;      // name of node\n    string data;    // list of nodes data(Files)\n    address payable uploader;\n    string receivers;\n  }\n\n  // struct Folder {\n  //   bytes32 name;      // name of node\n  //   bytes32 parent;    // parent nodes path\n  //   uint[] data;    // list of nodes data(Files)\n  //   bytes32[] folders; // list of linked folder's paths\n  //  }\n\n  event FileUploaded(\n    uint fileId,\n    string fileHash,\n    uint fileSize,\n    string fileType,\n    string fileName, \n    string fileDescription,\n    uint uploadTime,\n    address payable uploader,\n    string receivers,\n    bool starred\n  );\n\n  constructor(EthSwap _token) public {\n    ethSwap = _token;\n    deployer = msg.sender;\n  }\n\n  function uploadFile(string memory _fileHash, uint _fileSize, string memory _fileType, string memory _fileName, string memory _fileDescription) public {\n    // Make sure the file hash exists\n    require(bytes(_fileHash).length > 0);\n    // Make sure file type exists\n    require(bytes(_fileType).length > 0);\n    // Make sure file description exists\n    require(bytes(_fileDescription).length > 0);\n    // Make sure file fileName exists\n    require(bytes(_fileName).length > 0);\n    // Make sure uploader address exists\n    require(msg.sender!=address(0));\n    // Make sure file size is more than 0\n    require(_fileSize>0);\n\n    // Increment file id\n    fileCount ++; \n\n    // Add File to the contract\n    files[fileCount] = File(fileCount, _fileHash, _fileSize, _fileType, _fileName, _fileDescription, now, msg.sender, '', false);\n    // Trigger an event\n    emit FileUploaded(fileCount, _fileHash, _fileSize, _fileType, _fileName, _fileDescription, now, msg.sender, '', false);\n  }\n\n  function starAFile(uint fileId, string memory _fileHash) public {\n    // Make sure the file hash exists\n    require(bytes(_fileHash).length > 0);\n\n    files[fileId].starred = true;\n  }\n\n  function unstarAFile(uint fileId, string memory _fileHash) public {\n    // Make sure the file hash exists\n    require(bytes(_fileHash).length > 0);\n\n    files[fileId].starred = false;\n  }\n\n  function deleteFile(uint fileId, string memory _fileHash) public {\n    // Make sure the file hash exists\n    require(bytes(_fileHash).length > 0);\n\n    // Moving to trash\n    trashCount++;\n    files[fileId].fileId = trashCount;\n    trashFiles[trashCount] = files[fileId];\n\n    delete files[fileId];   \n  }\n\n  function restoreFile(uint fileId, string memory _fileHash) public {\n    // Make sure the file hash exists\n    require(bytes(_fileHash).length > 0);\n\n    // Moving to Drive\n    fileCount++;\n    trashFiles[fileId].fileId = fileCount;\n    files[fileCount] = trashFiles[fileId];\n\n    delete trashFiles[fileId];   \n  }\n\n  function deleteFileForever(uint fileId, string memory _fileHash) public {\n    // Make sure the file hash exists\n    require(bytes(_fileHash).length > 0);\n\n    delete trashFiles[fileId];   \n  }\n\n  function emptyTrash(uint[] memory fileIds) public {\n    for(uint i=0;i<fileIds.length;i++) {\n      delete trashFiles[fileIds[i]];\n    }\n    trashCount=0;\n  }\n\n  // Folders (Single hierarchy)\n  function addFolder(string memory _name) public {\n    folderCount++;\n    folders[folderCount] = Folder(folderCount, _name, '', msg.sender, '');\n  }\n\n  function updateFiles(uint folderId, string memory _data) public {\n    folders[folderId].data = _data;\n  }\n\n  function remove(uint folderId) public {\n    // removes from folders\n    delete folders[folderId]; \n  }\n\n  /* Tree implementation for nested folders\n\n  function get(bytes32 _name, bytes32 _parent) public view returns (bytes32, bytes32, uint[] memory, bytes32[] memory) {\n    Folder storage folder = folders[keccak256(abi.encodePacked(_parent, _name))];\n    return (folder.name, folder.parent, folder.data, folder.folders);\n  }\n    \n  function addFolder(bytes32 _name, bytes32 _parent, uint[] memory _data) public {\n    require(_name.length > 0);\n    \n    bytes32 path = keccak256(abi.encodePacked(_parent, _name));\n    \n    folders[path] = Folder({\n      name: _name, \n      parent: _parent, \n      data: _data, \n      folders: new bytes32[](0),\n      receivers: new address[](0)\n    });\n    folders[_parent].folders.push(path);\n  }\n\n  function updateFiles(bytes32 _name, bytes32 _parent, uint[] memory _data) public {\n    require(_name.length > 0);\n    \n    bytes32 path = keccak256(abi.encodePacked(_parent, _name));\n    \n    Folder storage folder = folders[path];\n    \n    folder.data = _data;\n  }\n\n  // Can only remove leaves\n  function remove(bytes32 _name, bytes32 _parent) public {\n    bytes32 path = keccak256(abi.encodePacked(_parent, _name));\n    // allow to remove leaves (folder without linked folders)\n    require(folders[path].folders.length == 0);\n    // removes from folders\n    delete folders[path];\n    \n    // removes from parent list of folders\n    bytes32[] storage childs = folders[_parent].folders;\n    for (uint256 i = getIndex(childs, path); i < childs.length - 1; i++) {\n      childs[i] = childs[i + 1];\n    }\n    delete childs[childs.length - 1];\n    childs.length--;\n  }\n\n  function getIndex(bytes32[] memory childs, bytes32 _path) pure internal returns (uint256) {\n    for (uint256 i = 0; i < childs.length; i++) {\n      if (_path == childs[i]) {\n        return i;\n      }\n    }\n    return childs.length - 1;\n  }\n\n  */\n\n  function shareAFile(uint fileId, string memory _fileHash, string memory _receivers) public {\n    // Make sure the file hash exists\n    require(bytes(_fileHash).length > 0);\n\n    // Moving to Shared Files\n    files[fileId].receivers = _receivers;\n  }\n\n  function shareAFolder(uint folderId, string memory _receivers) public { \n    // Moving to Shared Folders\n    folders[folderId].receivers = _receivers;\n  }\n\n  function buyStorage(uint amt, uint tokenAmt) public {\n    // Calling transfer fn\n    ethSwap.transferTokensToContract(tokenAmt);\n\n    // Increasing Storage\n    totalSize[msg.sender] = totalSize[msg.sender] + amt;\n  }\n\n  function withdrawTokens(uint tokenAmt, address receiver) public {\n    // Only deployer can call this \n    require(msg.sender == deployer);\n\n    // Calling transfer fn\n    ethSwap.transferTokensToAccount(tokenAmt, receiver);\n  }\n}",
  "sourcePath": "C:\\Users\\shahv\\Desktop\\VDrive\\src\\contracts\\DStorage.sol",
  "compiler": {
    "name": "solc",
    "version": "0.5.16+commit.9c3226ce.Emscripten.clang"
  },
  "schemaVersion": "3.0.23",
  "updatedAt": "2021-07-29T20:20:28.656Z",
  "networkType": "ethereum",
  "devdoc": {
    "methods": {}
  },
  "userdoc": {
    "methods": {}
  }
}