{
  "contractName": "DStorage",
  "abi": [
    {
      "inputs": [],
      "payable": false,
      "stateMutability": "nonpayable",
      "type": "constructor"
    },
    {
      "anonymous": false,
      "inputs": [
        {
          "indexed": false,
          "internalType": "uint256",
          "name": "fileId",
          "type": "uint256"
        },
        {
          "indexed": false,
          "internalType": "string",
          "name": "fileHash",
          "type": "string"
        },
        {
          "indexed": false,
          "internalType": "uint256",
          "name": "fileSize",
          "type": "uint256"
        },
        {
          "indexed": false,
          "internalType": "string",
          "name": "fileType",
          "type": "string"
        },
        {
          "indexed": false,
          "internalType": "string",
          "name": "fileName",
          "type": "string"
        },
        {
          "indexed": false,
          "internalType": "string",
          "name": "fileDescription",
          "type": "string"
        },
        {
          "indexed": false,
          "internalType": "uint256",
          "name": "uploadTime",
          "type": "uint256"
        },
        {
          "indexed": false,
          "internalType": "address payable",
          "name": "uploader",
          "type": "address"
        },
        {
          "indexed": false,
          "internalType": "string",
          "name": "receivers",
          "type": "string"
        },
        {
          "indexed": false,
          "internalType": "bool",
          "name": "starred",
          "type": "bool"
        }
      ],
      "name": "FileUploaded",
      "type": "event"
    },
    {
      "constant": true,
      "inputs": [],
      "name": "fileCount",
      "outputs": [
        {
          "internalType": "uint256",
          "name": "",
          "type": "uint256"
        }
      ],
      "payable": false,
      "stateMutability": "view",
      "type": "function"
    },
    {
      "constant": true,
      "inputs": [
        {
          "internalType": "uint256",
          "name": "",
          "type": "uint256"
        }
      ],
      "name": "files",
      "outputs": [
        {
          "internalType": "uint256",
          "name": "fileId",
          "type": "uint256"
        },
        {
          "internalType": "string",
          "name": "fileHash",
          "type": "string"
        },
        {
          "internalType": "uint256",
          "name": "fileSize",
          "type": "uint256"
        },
        {
          "internalType": "string",
          "name": "fileType",
          "type": "string"
        },
        {
          "internalType": "string",
          "name": "fileName",
          "type": "string"
        },
        {
          "internalType": "string",
          "name": "fileDescription",
          "type": "string"
        },
        {
          "internalType": "uint256",
          "name": "uploadTime",
          "type": "uint256"
        },
        {
          "internalType": "address payable",
          "name": "uploader",
          "type": "address"
        },
        {
          "internalType": "string",
          "name": "receivers",
          "type": "string"
        },
        {
          "internalType": "bool",
          "name": "starred",
          "type": "bool"
        }
      ],
      "payable": false,
      "stateMutability": "view",
      "type": "function"
    },
    {
      "constant": true,
      "inputs": [],
      "name": "folderCount",
      "outputs": [
        {
          "internalType": "uint256",
          "name": "",
          "type": "uint256"
        }
      ],
      "payable": false,
      "stateMutability": "view",
      "type": "function"
    },
    {
      "constant": true,
      "inputs": [
        {
          "internalType": "uint256",
          "name": "",
          "type": "uint256"
        }
      ],
      "name": "folders",
      "outputs": [
        {
          "internalType": "uint256",
          "name": "folderId",
          "type": "uint256"
        },
        {
          "internalType": "string",
          "name": "name",
          "type": "string"
        },
        {
          "internalType": "string",
          "name": "data",
          "type": "string"
        },
        {
          "internalType": "address payable",
          "name": "uploader",
          "type": "address"
        },
        {
          "internalType": "string",
          "name": "receivers",
          "type": "string"
        }
      ],
      "payable": false,
      "stateMutability": "view",
      "type": "function"
    },
    {
      "constant": true,
      "inputs": [],
      "name": "name",
      "outputs": [
        {
          "internalType": "string",
          "name": "",
          "type": "string"
        }
      ],
      "payable": false,
      "stateMutability": "view",
      "type": "function"
    },
    {
      "constant": true,
      "inputs": [],
      "name": "trashCount",
      "outputs": [
        {
          "internalType": "uint256",
          "name": "",
          "type": "uint256"
        }
      ],
      "payable": false,
      "stateMutability": "view",
      "type": "function"
    },
    {
      "constant": true,
      "inputs": [
        {
          "internalType": "uint256",
          "name": "",
          "type": "uint256"
        }
      ],
      "name": "trashFiles",
      "outputs": [
        {
          "internalType": "uint256",
          "name": "fileId",
          "type": "uint256"
        },
        {
          "internalType": "string",
          "name": "fileHash",
          "type": "string"
        },
        {
          "internalType": "uint256",
          "name": "fileSize",
          "type": "uint256"
        },
        {
          "internalType": "string",
          "name": "fileType",
          "type": "string"
        },
        {
          "internalType": "string",
          "name": "fileName",
          "type": "string"
        },
        {
          "internalType": "string",
          "name": "fileDescription",
          "type": "string"
        },
        {
          "internalType": "uint256",
          "name": "uploadTime",
          "type": "uint256"
        },
        {
          "internalType": "address payable",
          "name": "uploader",
          "type": "address"
        },
        {
          "internalType": "string",
          "name": "receivers",
          "type": "string"
        },
        {
          "internalType": "bool",
          "name": "starred",
          "type": "bool"
        }
      ],
      "payable": false,
      "stateMutability": "view",
      "type": "function"
    },
    {
      "constant": false,
      "inputs": [
        {
          "internalType": "string",
          "name": "_fileHash",
          "type": "string"
        },
        {
          "internalType": "uint256",
          "name": "_fileSize",
          "type": "uint256"
        },
        {
          "internalType": "string",
          "name": "_fileType",
          "type": "string"
        },
        {
          "internalType": "string",
          "name": "_fileName",
          "type": "string"
        },
        {
          "internalType": "string",
          "name": "_fileDescription",
          "type": "string"
        }
      ],
      "name": "uploadFile",
      "outputs": [],
      "payable": false,
      "stateMutability": "nonpayable",
      "type": "function"
    },
    {
      "constant": false,
      "inputs": [
        {
          "internalType": "uint256",
          "name": "fileId",
          "type": "uint256"
        },
        {
          "internalType": "string",
          "name": "_fileHash",
          "type": "string"
        }
      ],
      "name": "starAFile",
      "outputs": [],
      "payable": false,
      "stateMutability": "nonpayable",
      "type": "function"
    },
    {
      "constant": false,
      "inputs": [
        {
          "internalType": "uint256",
          "name": "fileId",
          "type": "uint256"
        },
        {
          "internalType": "string",
          "name": "_fileHash",
          "type": "string"
        }
      ],
      "name": "unstarAFile",
      "outputs": [],
      "payable": false,
      "stateMutability": "nonpayable",
      "type": "function"
    },
    {
      "constant": false,
      "inputs": [
        {
          "internalType": "uint256",
          "name": "fileId",
          "type": "uint256"
        },
        {
          "internalType": "string",
          "name": "_fileHash",
          "type": "string"
        }
      ],
      "name": "deleteFile",
      "outputs": [],
      "payable": false,
      "stateMutability": "nonpayable",
      "type": "function"
    },
    {
      "constant": false,
      "inputs": [
        {
          "internalType": "uint256",
          "name": "fileId",
          "type": "uint256"
        },
        {
          "internalType": "string",
          "name": "_fileHash",
          "type": "string"
        }
      ],
      "name": "restoreFile",
      "outputs": [],
      "payable": false,
      "stateMutability": "nonpayable",
      "type": "function"
    },
    {
      "constant": false,
      "inputs": [
        {
          "internalType": "uint256",
          "name": "fileId",
          "type": "uint256"
        },
        {
          "internalType": "string",
          "name": "_fileHash",
          "type": "string"
        }
      ],
      "name": "deleteFileForever",
      "outputs": [],
      "payable": false,
      "stateMutability": "nonpayable",
      "type": "function"
    },
    {
      "constant": false,
      "inputs": [
        {
          "internalType": "uint256[]",
          "name": "fileIds",
          "type": "uint256[]"
        }
      ],
      "name": "emptyTrash",
      "outputs": [],
      "payable": false,
      "stateMutability": "nonpayable",
      "type": "function"
    },
    {
      "constant": false,
      "inputs": [
        {
          "internalType": "string",
          "name": "_name",
          "type": "string"
        }
      ],
      "name": "addFolder",
      "outputs": [],
      "payable": false,
      "stateMutability": "nonpayable",
      "type": "function"
    },
    {
      "constant": false,
      "inputs": [
        {
          "internalType": "uint256",
          "name": "folderId",
          "type": "uint256"
        },
        {
          "internalType": "string",
          "name": "_data",
          "type": "string"
        }
      ],
      "name": "updateFiles",
      "outputs": [],
      "payable": false,
      "stateMutability": "nonpayable",
      "type": "function"
    },
    {
      "constant": false,
      "inputs": [
        {
          "internalType": "uint256",
          "name": "folderId",
          "type": "uint256"
        }
      ],
      "name": "remove",
      "outputs": [],
      "payable": false,
      "stateMutability": "nonpayable",
      "type": "function"
    },
    {
      "constant": false,
      "inputs": [
        {
          "internalType": "uint256",
          "name": "fileId",
          "type": "uint256"
        },
        {
          "internalType": "string",
          "name": "_fileHash",
          "type": "string"
        },
        {
          "internalType": "string",
          "name": "_receivers",
          "type": "string"
        }
      ],
      "name": "shareAFile",
      "outputs": [],
      "payable": false,
      "stateMutability": "nonpayable",
      "type": "function"
    },
    {
      "constant": false,
      "inputs": [
        {
          "internalType": "uint256",
          "name": "folderId",
          "type": "uint256"
        },
        {
          "internalType": "string",
          "name": "_receivers",
          "type": "string"
        }
      ],
      "name": "shareAFolder",
      "outputs": [],
      "payable": false,
      "stateMutability": "nonpayable",
      "type": "function"
    }
  ],
  "bytecode": "0x60806040526040518060400160405280600881526020017f4453746f72616765000000000000000000000000000000000000000000000000815250600090805190602001906200005192919062000075565b506000600155600060025560006003553480156200006e57600080fd5b5062000124565b828054600181600116156101000203166002900490600052602060002090601f016020900481019282601f10620000b857805160ff1916838001178555620000e9565b82800160010185558215620000e9579182015b82811115620000e8578251825591602001919060010190620000cb565b5b509050620000f89190620000fc565b5090565b6200012191905b808211156200011d57600081600090555060010162000103565b5090565b90565b612e3280620001346000396000f3fe608060405234801561001057600080fd5b50600436106101215760003560e01c80635ef0ac2e116100ad578063d5d7cbe511610071578063d5d7cbe514610c84578063e82d9d3314610d3c578063ee48bf9614610fc6578063f4c714b41461108b578063f4e283151461133557610121565b80635ef0ac2e146108b55780637a0a044c1461097057806385ac4f3e14610a35578063c29082c914610afa578063c343d0dd14610bbf57610121565b8063373ddf4d116100f4578063373ddf4d146103e8578063439535191461069257806344bad349146106b05780634cc82215146106ce578063536722e7146106fc57610121565b806306fdde031461012657806310e72591146101a957806330a67f1f146103055780633260f1a1146103ca575b600080fd5b61012e6113fa565b6040518080602001828103825283818151815260200191508051906020019080838360005b8381101561016e578082015181840152602081019050610153565b50505050905090810190601f16801561019b5780820380516001836020036101000a031916815260200191505b509250505060405180910390f35b610303600480360360608110156101bf57600080fd5b8101908080359060200190929190803590602001906401000000008111156101e657600080fd5b8201836020820111156101f857600080fd5b8035906020019184600183028401116401000000008311171561021a57600080fd5b91908080601f016020809104026020016040519081016040528093929190818152602001838380828437600081840152601f19601f8201169050808301925050505050505091929192908035906020019064010000000081111561027d57600080fd5b82018360208201111561028f57600080fd5b803590602001918460018302840111640100000000831117156102b157600080fd5b91908080601f016020809104026020016040519081016040528093929190818152602001838380828437600081840152601f19601f820116905080830192505050505050509192919290505050611498565b005b6103c86004803603604081101561031b57600080fd5b81019080803590602001909291908035906020019064010000000081111561034257600080fd5b82018360208201111561035457600080fd5b8035906020019184600183028401116401000000008311171561037657600080fd5b91908080601f016020809104026020016040519081016040528093929190818152602001838380828437600081840152601f19601f8201169050808301925050505050505091929192905050506114d6565b005b6103d2611775565b6040518082815260200191505060405180910390f35b610414600480360360208110156103fe57600080fd5b810190808035906020019092919050505061177b565b604051808b8152602001806020018a81526020018060200180602001806020018981526020018873ffffffffffffffffffffffffffffffffffffffff1673ffffffffffffffffffffffffffffffffffffffff168152602001806020018715151515815260200186810386528f818151815260200191508051906020019080838360005b838110156104b2578082015181840152602081019050610497565b50505050905090810190601f1680156104df5780820380516001836020036101000a031916815260200191505b5086810385528d818151815260200191508051906020019080838360005b838110156105185780820151818401526020810190506104fd565b50505050905090810190601f1680156105455780820380516001836020036101000a031916815260200191505b5086810384528c818151815260200191508051906020019080838360005b8381101561057e578082015181840152602081019050610563565b50505050905090810190601f1680156105ab5780820380516001836020036101000a031916815260200191505b5086810383528b818151815260200191508051906020019080838360005b838110156105e45780820151818401526020810190506105c9565b50505050905090810190601f1680156106115780820380516001836020036101000a031916815260200191505b50868103825288818151815260200191508051906020019080838360005b8381101561064a57808201518184015260208101905061062f565b50505050905090810190601f1680156106775780820380516001836020036101000a031916815260200191505b509f5050505050505050505050505050505060405180910390f35b61069a611af4565b6040518082815260200191505060405180910390f35b6106b8611afa565b6040518082815260200191505060405180910390f35b6106fa600480360360208110156106e457600080fd5b8101908080359060200190929190505050611b00565b005b6107286004803603602081101561071257600080fd5b8101908080359060200190929190505050611b78565b6040518086815260200180602001806020018573ffffffffffffffffffffffffffffffffffffffff1673ffffffffffffffffffffffffffffffffffffffff16815260200180602001848103845288818151815260200191508051906020019080838360005b838110156107a857808201518184015260208101905061078d565b50505050905090810190601f1680156107d55780820380516001836020036101000a031916815260200191505b50848103835287818151815260200191508051906020019080838360005b8381101561080e5780820151818401526020810190506107f3565b50505050905090810190601f16801561083b5780820380516001836020036101000a031916815260200191505b50848103825285818151815260200191508051906020019080838360005b83811015610874578082015181840152602081019050610859565b50505050905090810190601f1680156108a15780820380516001836020036101000a031916815260200191505b509850505050505050505060405180910390f35b61096e600480360360208110156108cb57600080fd5b81019080803590602001906401000000008111156108e857600080fd5b8201836020820111156108fa57600080fd5b8035906020019184600183028401116401000000008311171561091c57600080fd5b91908080601f016020809104026020016040519081016040528093929190818152602001838380828437600081840152601f19601f820116905080830192505050505050509192919290505050611d96565b005b610a336004803603604081101561098657600080fd5b8101908080359060200190929190803590602001906401000000008111156109ad57600080fd5b8201836020820111156109bf57600080fd5b803590602001918460018302840111640100000000831117156109e157600080fd5b91908080601f016020809104026020016040519081016040528093929190818152602001838380828437600081840152601f19601f820116905080830192505050505050509192919290505050611ec8565b005b610af860048036036040811015610a4b57600080fd5b810190808035906020019092919080359060200190640100000000811115610a7257600080fd5b820183602082011115610a8457600080fd5b80359060200191846001830284011164010000000083111715610aa657600080fd5b91908080601f016020809104026020016040519081016040528093929190818152602001838380828437600081840152601f19601f820116905080830192505050505050509192919290505050611f09565b005b610bbd60048036036040811015610b1057600080fd5b810190808035906020019092919080359060200190640100000000811115610b3757600080fd5b820183602082011115610b4957600080fd5b80359060200191846001830284011164010000000083111715610b6b57600080fd5b91908080601f016020809104026020016040519081016040528093929190818152602001838380828437600081840152601f19601f820116905080830192505050505050509192919290505050611fd4565b005b610c8260048036036040811015610bd557600080fd5b810190808035906020019092919080359060200190640100000000811115610bfc57600080fd5b820183602082011115610c0e57600080fd5b80359060200191846001830284011164010000000083111715610c3057600080fd5b91908080601f016020809104026020016040519081016040528093929190818152602001838380828437600081840152601f19601f820116905080830192505050505050509192919290505050612003565b005b610d3a60048036036020811015610c9a57600080fd5b8101908080359060200190640100000000811115610cb757600080fd5b820183602082011115610cc957600080fd5b80359060200191846020830284011164010000000083111715610ceb57600080fd5b919080806020026020016040519081016040528093929190818152602001838360200280828437600081840152601f19601f8201169050808301925050505050505091929192905050506122a2565b005b610fc4600480360360a0811015610d5257600080fd5b8101908080359060200190640100000000811115610d6f57600080fd5b820183602082011115610d8157600080fd5b80359060200191846001830284011164010000000083111715610da357600080fd5b91908080601f016020809104026020016040519081016040528093929190818152602001838380828437600081840152601f19601f8201169050808301925050505050505091929192908035906020019092919080359060200190640100000000811115610e1057600080fd5b820183602082011115610e2257600080fd5b80359060200191846001830284011164010000000083111715610e4457600080fd5b91908080601f016020809104026020016040519081016040528093929190818152602001838380828437600081840152601f19601f82011690508083019250505050505050919291929080359060200190640100000000811115610ea757600080fd5b820183602082011115610eb957600080fd5b80359060200191846001830284011164010000000083111715610edb57600080fd5b91908080601f016020809104026020016040519081016040528093929190818152602001838380828437600081840152601f19601f82011690508083019250505050505050919291929080359060200190640100000000811115610f3e57600080fd5b820183602082011115610f5057600080fd5b80359060200191846001830284011164010000000083111715610f7257600080fd5b91908080601f016020809104026020016040519081016040528093929190818152602001838380828437600081840152601f19601f820116905080830192505050505050509192919290505050612396565b005b61108960048036036040811015610fdc57600080fd5b81019080803590602001909291908035906020019064010000000081111561100357600080fd5b82018360208201111561101557600080fd5b8035906020019184600183028401116401000000008311171561103757600080fd5b91908080601f016020809104026020016040519081016040528093929190818152602001838380828437600081840152601f19601f820116905080830192505050505050509192919290505050612820565b005b6110b7600480360360208110156110a157600080fd5b810190808035906020019092919050505061284f565b604051808b8152602001806020018a81526020018060200180602001806020018981526020018873ffffffffffffffffffffffffffffffffffffffff1673ffffffffffffffffffffffffffffffffffffffff168152602001806020018715151515815260200186810386528f818151815260200191508051906020019080838360005b8381101561115557808201518184015260208101905061113a565b50505050905090810190601f1680156111825780820380516001836020036101000a031916815260200191505b5086810385528d818151815260200191508051906020019080838360005b838110156111bb5780820151818401526020810190506111a0565b50505050905090810190601f1680156111e85780820380516001836020036101000a031916815260200191505b5086810384528c818151815260200191508051906020019080838360005b83811015611221578082015181840152602081019050611206565b50505050905090810190601f16801561124e5780820380516001836020036101000a031916815260200191505b5086810383528b818151815260200191508051906020019080838360005b8381101561128757808201518184015260208101905061126c565b50505050905090810190601f1680156112b45780820380516001836020036101000a031916815260200191505b50868103825288818151815260200191508051906020019080838360005b838110156112ed5780820151818401526020810190506112d2565b50505050905090810190601f16801561131a5780820380516001836020036101000a031916815260200191505b509f5050505050505050505050505050505060405180910390f35b6113f86004803603604081101561134b57600080fd5b81019080803590602001909291908035906020019064010000000081111561137257600080fd5b82018360208201111561138457600080fd5b803590602001918460018302840111640100000000831117156113a657600080fd5b91908080601f016020809104026020016040519081016040528093929190818152602001838380828437600081840152601f19601f820116905080830192505050505050509192919290505050612bc8565b005b60008054600181600116156101000203166002900480601f0160208091040260200160405190810160405280929190818152602001828054600181600116156101000203166002900480156114905780601f1061146557610100808354040283529160200191611490565b820191906000526020600020905b81548152906001019060200180831161147357829003601f168201915b505050505081565b60008251116114a657600080fd5b806004600085815260200190815260200160002060080190805190602001906114d0929190612c09565b50505050565b60008151116114e457600080fd5b600260008154809291906001019190505550600254600460008481526020019081526020016000206000018190555060046000838152602001908152602001600020600660006002548152602001908152602001600020600082015481600001556001820181600101908054600181600116156101000203166002900461156c929190612c89565b50600282015481600201556003820181600301908054600181600116156101000203166002900461159e929190612c89565b50600482018160040190805460018160011615610100020316600290046115c6929190612c89565b50600582018160050190805460018160011615610100020316600290046115ee929190612c89565b50600682015481600601556007820160009054906101000a900473ffffffffffffffffffffffffffffffffffffffff168160070160006101000a81548173ffffffffffffffffffffffffffffffffffffffff021916908373ffffffffffffffffffffffffffffffffffffffff16021790555060088201816008019080546001816001161561010002031660029004611687929190612c89565b506009820160009054906101000a900460ff168160090160006101000a81548160ff021916908315150217905550905050600460008381526020019081526020016000206000808201600090556001820160006116e49190612d10565b60028201600090556003820160006116fc9190612d10565b60048201600061170c9190612d10565b60058201600061171c9190612d10565b60068201600090556007820160006101000a81549073ffffffffffffffffffffffffffffffffffffffff021916905560088201600061175b9190612d10565b6009820160006101000a81549060ff021916905550505050565b60025481565b6006602052806000526040600020600091509050806000015490806001018054600181600116156101000203166002900480601f01602080910402602001604051908101604052809291908181526020018280546001816001161561010002031660029004801561182d5780601f106118025761010080835404028352916020019161182d565b820191906000526020600020905b81548152906001019060200180831161181057829003601f168201915b505050505090806002015490806003018054600181600116156101000203166002900480601f0160208091040260200160405190810160405280929190818152602001828054600181600116156101000203166002900480156118d15780601f106118a6576101008083540402835291602001916118d1565b820191906000526020600020905b8154815290600101906020018083116118b457829003601f168201915b505050505090806004018054600181600116156101000203166002900480601f01602080910402602001604051908101604052809291908181526020018280546001816001161561010002031660029004801561196f5780601f106119445761010080835404028352916020019161196f565b820191906000526020600020905b81548152906001019060200180831161195257829003601f168201915b505050505090806005018054600181600116156101000203166002900480601f016020809104026020016040519081016040528092919081815260200182805460018160011615610100020316600290048015611a0d5780601f106119e257610100808354040283529160200191611a0d565b820191906000526020600020905b8154815290600101906020018083116119f057829003601f168201915b5050505050908060060154908060070160009054906101000a900473ffffffffffffffffffffffffffffffffffffffff1690806008018054600181600116156101000203166002900480601f016020809104026020016040519081016040528092919081815260200182805460018160011615610100020316600290048015611ad75780601f10611aac57610100808354040283529160200191611ad7565b820191906000526020600020905b815481529060010190602001808311611aba57829003601f168201915b5050505050908060090160009054906101000a900460ff1690508a565b60015481565b60035481565b60056000828152602001908152602001600020600080820160009055600182016000611b2c9190612d10565b600282016000611b3c9190612d10565b6003820160006101000a81549073ffffffffffffffffffffffffffffffffffffffff0219169055600482016000611b739190612d10565b505050565b6005602052806000526040600020600091509050806000015490806001018054600181600116156101000203166002900480601f016020809104026020016040519081016040528092919081815260200182805460018160011615610100020316600290048015611c2a5780601f10611bff57610100808354040283529160200191611c2a565b820191906000526020600020905b815481529060010190602001808311611c0d57829003601f168201915b505050505090806002018054600181600116156101000203166002900480601f016020809104026020016040519081016040528092919081815260200182805460018160011615610100020316600290048015611cc85780601f10611c9d57610100808354040283529160200191611cc8565b820191906000526020600020905b815481529060010190602001808311611cab57829003601f168201915b5050505050908060030160009054906101000a900473ffffffffffffffffffffffffffffffffffffffff1690806004018054600181600116156101000203166002900480601f016020809104026020016040519081016040528092919081815260200182805460018160011615610100020316600290048015611d8c5780601f10611d6157610100808354040283529160200191611d8c565b820191906000526020600020905b815481529060010190602001808311611d6f57829003601f168201915b5050505050905085565b6003600081548092919060010191905055506040518060a0016040528060035481526020018281526020016040518060200160405280600081525081526020013373ffffffffffffffffffffffffffffffffffffffff16815260200160405180602001604052806000815250815250600560006003548152602001908152602001600020600082015181600001556020820151816001019080519060200190611e40929190612d58565b506040820151816002019080519060200190611e5d929190612d58565b5060608201518160030160006101000a81548173ffffffffffffffffffffffffffffffffffffffff021916908373ffffffffffffffffffffffffffffffffffffffff1602179055506080820151816004019080519060200190611ec1929190612d58565b5090505050565b6000815111611ed657600080fd5b60006004600084815260200190815260200160002060090160006101000a81548160ff0219169083151502179055505050565b6000815111611f1757600080fd5b60066000838152602001908152602001600020600080820160009055600182016000611f439190612d10565b6002820160009055600382016000611f5b9190612d10565b600482016000611f6b9190612d10565b600582016000611f7b9190612d10565b60068201600090556007820160006101000a81549073ffffffffffffffffffffffffffffffffffffffff0219169055600882016000611fba9190612d10565b6009820160006101000a81549060ff021916905550505050565b80600560008481526020019081526020016000206002019080519060200190611ffe929190612c09565b505050565b600081511161201157600080fd5b6001600081548092919060010191905055506001546006600084815260200190815260200160002060000181905550600660008381526020019081526020016000206004600060015481526020019081526020016000206000820154816000015560018201816001019080546001816001161561010002031660029004612099929190612c89565b5060028201548160020155600382018160030190805460018160011615610100020316600290046120cb929190612c89565b50600482018160040190805460018160011615610100020316600290046120f3929190612c89565b506005820181600501908054600181600116156101000203166002900461211b929190612c89565b50600682015481600601556007820160009054906101000a900473ffffffffffffffffffffffffffffffffffffffff168160070160006101000a81548173ffffffffffffffffffffffffffffffffffffffff021916908373ffffffffffffffffffffffffffffffffffffffff160217905550600882018160080190805460018160011615610100020316600290046121b4929190612c89565b506009820160009054906101000a900460ff168160090160006101000a81548160ff021916908315150217905550905050600660008381526020019081526020016000206000808201600090556001820160006122119190612d10565b60028201600090556003820160006122299190612d10565b6004820160006122399190612d10565b6005820160006122499190612d10565b60068201600090556007820160006101000a81549073ffffffffffffffffffffffffffffffffffffffff02191690556008820160006122889190612d10565b6009820160006101000a81549060ff021916905550505050565b60008090505b815181101561238a57600660008383815181106122c157fe5b602002602001015181526020019081526020016000206000808201600090556001820160006122f09190612d10565b60028201600090556003820160006123089190612d10565b6004820160006123189190612d10565b6005820160006123289190612d10565b60068201600090556007820160006101000a81549073ffffffffffffffffffffffffffffffffffffffff02191690556008820160006123679190612d10565b6009820160006101000a81549060ff0219169055505080806001019150506122a8565b50600060028190555050565b60008551116123a457600080fd5b60008351116123b257600080fd5b60008151116123c057600080fd5b60008251116123ce57600080fd5b600073ffffffffffffffffffffffffffffffffffffffff163373ffffffffffffffffffffffffffffffffffffffff16141561240857600080fd5b6000841161241557600080fd5b60016000815480929190600101919050555060405180610140016040528060015481526020018681526020018581526020018481526020018381526020018281526020014281526020013373ffffffffffffffffffffffffffffffffffffffff168152602001604051806020016040528060008152508152602001600015158152506004600060015481526020019081526020016000206000820151816000015560208201518160010190805190602001906124d2929190612d58565b506040820151816002015560608201518160030190805190602001906124f9929190612d58565b506080820151816004019080519060200190612516929190612d58565b5060a0820151816005019080519060200190612533929190612d58565b5060c0820151816006015560e08201518160070160006101000a81548173ffffffffffffffffffffffffffffffffffffffff021916908373ffffffffffffffffffffffffffffffffffffffff1602179055506101008201518160080190805190602001906125a2929190612d58565b506101208201518160090160006101000a81548160ff0219169083151502179055509050507f1b491f28c37a9ffd4d706279ccf7d75121a6ba53cad2dc6475e951a1431f1396600154868686868642336000604051808a8152602001806020018981526020018060200180602001806020018881526020018773ffffffffffffffffffffffffffffffffffffffff1673ffffffffffffffffffffffffffffffffffffffff168152602001806020018715151515815260200186810386528e818151815260200191508051906020019080838360005b83811015612692578082015181840152602081019050612677565b50505050905090810190601f1680156126bf5780820380516001836020036101000a031916815260200191505b5086810385528c818151815260200191508051906020019080838360005b838110156126f85780820151818401526020810190506126dd565b50505050905090810190601f1680156127255780820380516001836020036101000a031916815260200191505b5086810384528b818151815260200191508051906020019080838360005b8381101561275e578082015181840152602081019050612743565b50505050905090810190601f16801561278b5780820380516001836020036101000a031916815260200191505b5086810383528a818151815260200191508051906020019080838360005b838110156127c45780820151818401526020810190506127a9565b50505050905090810190601f1680156127f15780820380516001836020036101000a031916815260200191505b508681038252600081526020016020019e50505050505050505050505050505060405180910390a15050505050565b8060056000848152602001908152602001600020600401908051906020019061284a929190612c09565b505050565b6004602052806000526040600020600091509050806000015490806001018054600181600116156101000203166002900480601f0160208091040260200160405190810160405280929190818152602001828054600181600116156101000203166002900480156129015780601f106128d657610100808354040283529160200191612901565b820191906000526020600020905b8154815290600101906020018083116128e457829003601f168201915b505050505090806002015490806003018054600181600116156101000203166002900480601f0160208091040260200160405190810160405280929190818152602001828054600181600116156101000203166002900480156129a55780601f1061297a576101008083540402835291602001916129a5565b820191906000526020600020905b81548152906001019060200180831161298857829003601f168201915b505050505090806004018054600181600116156101000203166002900480601f016020809104026020016040519081016040528092919081815260200182805460018160011615610100020316600290048015612a435780601f10612a1857610100808354040283529160200191612a43565b820191906000526020600020905b815481529060010190602001808311612a2657829003601f168201915b505050505090806005018054600181600116156101000203166002900480601f016020809104026020016040519081016040528092919081815260200182805460018160011615610100020316600290048015612ae15780601f10612ab657610100808354040283529160200191612ae1565b820191906000526020600020905b815481529060010190602001808311612ac457829003601f168201915b5050505050908060060154908060070160009054906101000a900473ffffffffffffffffffffffffffffffffffffffff1690806008018054600181600116156101000203166002900480601f016020809104026020016040519081016040528092919081815260200182805460018160011615610100020316600290048015612bab5780601f10612b8057610100808354040283529160200191612bab565b820191906000526020600020905b815481529060010190602001808311612b8e57829003601f168201915b5050505050908060090160009054906101000a900460ff1690508a565b6000815111612bd657600080fd5b60016004600084815260200190815260200160002060090160006101000a81548160ff0219169083151502179055505050565b828054600181600116156101000203166002900490600052602060002090601f016020900481019282601f10612c4a57805160ff1916838001178555612c78565b82800160010185558215612c78579182015b82811115612c77578251825591602001919060010190612c5c565b5b509050612c859190612dd8565b5090565b828054600181600116156101000203166002900490600052602060002090601f016020900481019282601f10612cc25780548555612cff565b82800160010185558215612cff57600052602060002091601f016020900482015b82811115612cfe578254825591600101919060010190612ce3565b5b509050612d0c9190612dd8565b5090565b50805460018160011615610100020316600290046000825580601f10612d365750612d55565b601f016020900490600052602060002090810190612d549190612dd8565b5b50565b828054600181600116156101000203166002900490600052602060002090601f016020900481019282601f10612d9957805160ff1916838001178555612dc7565b82800160010185558215612dc7579182015b82811115612dc6578251825591602001919060010190612dab565b5b509050612dd49190612dd8565b5090565b612dfa91905b80821115612df6576000816000905550600101612dde565b5090565b9056fea265627a7a72315820f618a8214d3c4a02cd86e8dc420ffc27b8b7fcaa3d8e0f5c2b3794da57338c7a64736f6c63430005100032",
  "source": "pragma solidity ^0.5.0;\n\ncontract DStorage {\n  string public name = 'DStorage';\n  uint public fileCount = 0;\n  uint public trashCount = 0;\n  uint public folderCount = 0;\n\n  mapping(uint => File) public files;\n  mapping(uint => Folder) public folders;\n\n  mapping(uint => File) public trashFiles;\n  \n  struct File {\n    uint fileId;\n    string fileHash;\n    uint fileSize;\n    string fileType;\n    string fileName;\n    string fileDescription;\n    uint uploadTime;\n    address payable uploader;\n    string receivers;\n    bool starred;\n  }\n\n  struct Folder {\n    uint folderId;\n    string name;      // name of node\n    string data;    // list of nodes data(Files)\n    address payable uploader;\n    string receivers;\n  }\n\n  // struct Folder {\n  //   bytes32 name;      // name of node\n  //   bytes32 parent;    // parent nodes path\n  //   uint[] data;    // list of nodes data(Files)\n  //   bytes32[] folders; // list of linked folder's paths\n  //  }\n\n  event FileUploaded(\n    uint fileId,\n    string fileHash,\n    uint fileSize,\n    string fileType,\n    string fileName, \n    string fileDescription,\n    uint uploadTime,\n    address payable uploader,\n    string receivers,\n    bool starred\n  );\n\n  constructor() public {\n  }\n\n  function uploadFile(string memory _fileHash, uint _fileSize, string memory _fileType, string memory _fileName, string memory _fileDescription) public {\n    // Make sure the file hash exists\n    require(bytes(_fileHash).length > 0);\n    // Make sure file type exists\n    require(bytes(_fileType).length > 0);\n    // Make sure file description exists\n    require(bytes(_fileDescription).length > 0);\n    // Make sure file fileName exists\n    require(bytes(_fileName).length > 0);\n    // Make sure uploader address exists\n    require(msg.sender!=address(0));\n    // Make sure file size is more than 0\n    require(_fileSize>0);\n\n    // Increment file id\n    fileCount ++; \n\n    // Add File to the contract\n    files[fileCount] = File(fileCount, _fileHash, _fileSize, _fileType, _fileName, _fileDescription, now, msg.sender, '', false);\n    // Trigger an event\n    emit FileUploaded(fileCount, _fileHash, _fileSize, _fileType, _fileName, _fileDescription, now, msg.sender, '', false);\n  }\n\n  function starAFile(uint fileId, string memory _fileHash) public {\n    // Make sure the file hash exists\n    require(bytes(_fileHash).length > 0);\n\n    files[fileId].starred = true;\n  }\n\n  function unstarAFile(uint fileId, string memory _fileHash) public {\n    // Make sure the file hash exists\n    require(bytes(_fileHash).length > 0);\n\n    files[fileId].starred = false;\n  }\n\n  function deleteFile(uint fileId, string memory _fileHash) public {\n    // Make sure the file hash exists\n    require(bytes(_fileHash).length > 0);\n\n    // Moving to trash\n    trashCount++;\n    files[fileId].fileId = trashCount;\n    trashFiles[trashCount] = files[fileId];\n\n    delete files[fileId];   \n  }\n\n  function restoreFile(uint fileId, string memory _fileHash) public {\n    // Make sure the file hash exists\n    require(bytes(_fileHash).length > 0);\n\n    // Moving to Drive\n    fileCount++;\n    trashFiles[fileId].fileId = fileCount;\n    files[fileCount] = trashFiles[fileId];\n\n    delete trashFiles[fileId];   \n  }\n\n  function deleteFileForever(uint fileId, string memory _fileHash) public {\n    // Make sure the file hash exists\n    require(bytes(_fileHash).length > 0);\n\n    delete trashFiles[fileId];   \n  }\n\n  function emptyTrash(uint[] memory fileIds) public {\n    for(uint i=0;i<fileIds.length;i++) {\n      delete trashFiles[fileIds[i]];\n    }\n    trashCount=0;\n  }\n\n  // Folders (Single hierarchy)\n  function addFolder(string memory _name) public {\n    folderCount++;\n    folders[folderCount] = Folder(folderCount, _name, '', msg.sender, '');\n  }\n\n  function updateFiles(uint folderId, string memory _data) public {\n    folders[folderId].data = _data;\n  }\n\n  function remove(uint folderId) public {\n    // removes from folders\n    delete folders[folderId]; \n  }\n\n  /* Tree implementation for nested folders\n\n  function get(bytes32 _name, bytes32 _parent) public view returns (bytes32, bytes32, uint[] memory, bytes32[] memory) {\n    Folder storage folder = folders[keccak256(abi.encodePacked(_parent, _name))];\n    return (folder.name, folder.parent, folder.data, folder.folders);\n  }\n    \n  function addFolder(bytes32 _name, bytes32 _parent, uint[] memory _data) public {\n    require(_name.length > 0);\n    \n    bytes32 path = keccak256(abi.encodePacked(_parent, _name));\n    \n    folders[path] = Folder({\n      name: _name, \n      parent: _parent, \n      data: _data, \n      folders: new bytes32[](0),\n      receivers: new address[](0)\n    });\n    folders[_parent].folders.push(path);\n  }\n\n  function updateFiles(bytes32 _name, bytes32 _parent, uint[] memory _data) public {\n    require(_name.length > 0);\n    \n    bytes32 path = keccak256(abi.encodePacked(_parent, _name));\n    \n    Folder storage folder = folders[path];\n    \n    folder.data = _data;\n  }\n\n  // Can only remove leaves\n  function remove(bytes32 _name, bytes32 _parent) public {\n    bytes32 path = keccak256(abi.encodePacked(_parent, _name));\n    // allow to remove leaves (folder without linked folders)\n    require(folders[path].folders.length == 0);\n    // removes from folders\n    delete folders[path];\n    \n    // removes from parent list of folders\n    bytes32[] storage childs = folders[_parent].folders;\n    for (uint256 i = getIndex(childs, path); i < childs.length - 1; i++) {\n      childs[i] = childs[i + 1];\n    }\n    delete childs[childs.length - 1];\n    childs.length--;\n  }\n\n  function getIndex(bytes32[] memory childs, bytes32 _path) pure internal returns (uint256) {\n    for (uint256 i = 0; i < childs.length; i++) {\n      if (_path == childs[i]) {\n        return i;\n      }\n    }\n    return childs.length - 1;\n  }\n\n  */\n\n  function shareAFile(uint fileId, string memory _fileHash, string memory _receivers) public {\n    // Make sure the file hash exists\n    require(bytes(_fileHash).length > 0);\n\n    // Moving to Shared Files\n    files[fileId].receivers = _receivers;\n  }\n\n  function shareAFolder(uint folderId, string memory _receivers) public { \n    // Moving to Shared Folders\n    folders[folderId].receivers = _receivers;\n  }\n}",
  "sourcePath": "C:\\Users\\shahv\\Desktop\\VDrive\\src\\contracts\\DStorage.sol",
  "compiler": {
    "name": "solc",
    "version": "0.5.16+commit.9c3226ce.Emscripten.clang"
  },
  "schemaVersion": "3.0.23",
  "updatedAt": "2021-07-01T14:47:02.693Z",
  "networkType": "ethereum",
  "devdoc": {
    "methods": {}
  },
  "userdoc": {
    "methods": {}
  }
}