{
  "contractName": "EthSwap",
  "abi": [
    {
      "inputs": [
        {
          "internalType": "contract Token",
          "name": "_token",
          "type": "address"
        }
      ],
      "payable": false,
      "stateMutability": "nonpayable",
      "type": "constructor"
    },
    {
      "constant": true,
      "inputs": [],
      "name": "name",
      "outputs": [
        {
          "internalType": "string",
          "name": "",
          "type": "string"
        }
      ],
      "payable": false,
      "stateMutability": "view",
      "type": "function"
    },
    {
      "constant": true,
      "inputs": [],
      "name": "token",
      "outputs": [
        {
          "internalType": "contract Token",
          "name": "",
          "type": "address"
        }
      ],
      "payable": false,
      "stateMutability": "view",
      "type": "function"
    },
    {
      "constant": false,
      "inputs": [
        {
          "internalType": "uint256",
          "name": "_amount",
          "type": "uint256"
        },
        {
          "internalType": "address",
          "name": "_sender",
          "type": "address"
        }
      ],
      "name": "transferTokensToContract",
      "outputs": [],
      "payable": false,
      "stateMutability": "nonpayable",
      "type": "function"
    },
    {
      "constant": false,
      "inputs": [
        {
          "internalType": "uint256",
          "name": "_amount",
          "type": "uint256"
        },
        {
          "internalType": "address",
          "name": "receiver",
          "type": "address"
        }
      ],
      "name": "transferTokensToAccount",
      "outputs": [],
      "payable": true,
      "stateMutability": "payable",
      "type": "function"
    }
  ],
  "bytecode": "0x60806040526040518060400160405280601881526020017f4574685377617020496e7374616e742045786368616e676500000000000000008152506000908051906020019061004f9291906100d7565b5034801561005c57600080fd5b5060405161082a38038061082a8339818101604052602081101561007f57600080fd5b810190808051906020019092919050505080600160006101000a81548173ffffffffffffffffffffffffffffffffffffffff021916908373ffffffffffffffffffffffffffffffffffffffff1602179055505061017c565b828054600181600116156101000203166002900490600052602060002090601f016020900481019282601f1061011857805160ff1916838001178555610146565b82800160010185558215610146579182015b8281111561014557825182559160200191906001019061012a565b5b5090506101539190610157565b5090565b61017991905b8082111561017557600081600090555060010161015d565b5090565b90565b61069f8061018b6000396000f3fe60806040526004361061003f5760003560e01c806306fdde0314610044578063c548bce8146100d4578063fc0c546a14610122578063fe715e6514610179575b600080fd5b34801561005057600080fd5b506100596101d4565b6040518080602001828103825283818151815260200191508051906020019080838360005b8381101561009957808201518184015260208101905061007e565b50505050905090810190601f1680156100c65780820380516001836020036101000a031916815260200191505b509250505060405180910390f35b610120600480360360408110156100ea57600080fd5b8101908080359060200190929190803573ffffffffffffffffffffffffffffffffffffffff169060200190929190505050610272565b005b34801561012e57600080fd5b50610137610441565b604051808273ffffffffffffffffffffffffffffffffffffffff1673ffffffffffffffffffffffffffffffffffffffff16815260200191505060405180910390f35b34801561018557600080fd5b506101d26004803603604081101561019c57600080fd5b8101908080359060200190929190803573ffffffffffffffffffffffffffffffffffffffff169060200190929190505050610467565b005b60008054600181600116156101000203166002900480601f01602080910402602001604051908101604052809291908181526020018280546001816001161561010002031660029004801561026a5780601f1061023f5761010080835404028352916020019161026a565b820191906000526020600020905b81548152906001019060200180831161024d57829003601f168201915b505050505081565b81600160009054906101000a900473ffffffffffffffffffffffffffffffffffffffff1673ffffffffffffffffffffffffffffffffffffffff166370a08231306040518263ffffffff1660e01b8152600401808273ffffffffffffffffffffffffffffffffffffffff1673ffffffffffffffffffffffffffffffffffffffff16815260200191505060206040518083038186803b15801561031257600080fd5b505afa158015610326573d6000803e3d6000fd5b505050506040513d602081101561033c57600080fd5b8101908080519060200190929190505050101561035857600080fd5b600160009054906101000a900473ffffffffffffffffffffffffffffffffffffffff1673ffffffffffffffffffffffffffffffffffffffff1663a9059cbb82846040518363ffffffff1660e01b8152600401808373ffffffffffffffffffffffffffffffffffffffff1673ffffffffffffffffffffffffffffffffffffffff16815260200182815260200192505050602060405180830381600087803b15801561040157600080fd5b505af1158015610415573d6000803e3d6000fd5b505050506040513d602081101561042b57600080fd5b8101908080519060200190929190505050505050565b600160009054906101000a900473ffffffffffffffffffffffffffffffffffffffff1681565b81600160009054906101000a900473ffffffffffffffffffffffffffffffffffffffff1673ffffffffffffffffffffffffffffffffffffffff166370a08231836040518263ffffffff1660e01b8152600401808273ffffffffffffffffffffffffffffffffffffffff1673ffffffffffffffffffffffffffffffffffffffff16815260200191505060206040518083038186803b15801561050757600080fd5b505afa15801561051b573d6000803e3d6000fd5b505050506040513d602081101561053157600080fd5b8101908080519060200190929190505050101561054d57600080fd5b600160009054906101000a900473ffffffffffffffffffffffffffffffffffffffff1673ffffffffffffffffffffffffffffffffffffffff166323b872dd8230856040518463ffffffff1660e01b8152600401808473ffffffffffffffffffffffffffffffffffffffff1673ffffffffffffffffffffffffffffffffffffffff1681526020018373ffffffffffffffffffffffffffffffffffffffff1673ffffffffffffffffffffffffffffffffffffffff1681526020018281526020019350505050602060405180830381600087803b15801561062a57600080fd5b505af115801561063e573d6000803e3d6000fd5b505050506040513d602081101561065457600080fd5b810190808051906020019092919050505050505056fea265627a7a72315820200d7f3ab99f1cf8060c6dd69049326c35f4c26d7dbf2f29e0c71993fe10867764736f6c63430005100032",
  "source": "pragma solidity ^0.5.0;\n\nimport \"./Token.sol\";\n\ncontract EthSwap {\n  string public name = \"EthSwap Instant Exchange\";\n  Token public token;\n  // uint public rate = 100;\n\n  // event TokensPurchased(\n  //   address account,\n  //   address token,\n  //   uint amount,\n  //   uint rate\n  // );\n\n  // event TokensSold(\n  //   address account,\n  //   address token,\n  //   uint amount,\n  //   uint rate\n  // );\n\n  constructor(Token _token) public {\n    token = _token;\n  }\n\n  // function buyTokens() public payable {\n  //   // Calculate the number of tokens to buy\n  //   uint tokenAmount = msg.value * rate;\n\n  //   // Require that EthSwap has enough tokens\n  //   require(token.balanceOf(address(this)) >= tokenAmount);\n\n  //   // Transfer tokens to the user\n  //   token.transfer(msg.sender, tokenAmount);\n\n  //   // Emit an event\n  //   emit TokensPurchased(msg.sender, address(token), tokenAmount, rate);\n  // }\n\n  // function sellTokens(uint _amount) public {\n  //   // User can't sell more tokens than they have\n  //   require(token.balanceOf(msg.sender) >= _amount);\n\n  //   // Calculate the amount of Ether to redeem\n  //   uint etherAmount = _amount / rate;\n\n  //   // Require that EthSwap has enough Ether\n  //   require(address(this).balance >= etherAmount);\n\n  //   // Perform sale\n  //   token.transferFrom(msg.sender, address(this), _amount);\n  //   msg.sender.transfer(etherAmount);\n\n  //   // Emit an event\n  //   emit TokensSold(msg.sender, address(token), _amount, rate);\n  // }\n\n  // To Transfer VID tokens to smart contract\n  function transferTokensToContract(uint _amount, address _sender) public {\n    // User can't sell more tokens than they have\n    require(token.balanceOf(_sender) >= _amount);\n\n    // Perform sale\n    token.transferFrom(_sender, address(this), _amount);  \n  } \n\n  // To Transfer VID tokens from smart contract to desired address\n  function transferTokensToAccount(uint _amount, address receiver) public payable {\n    // User can't sell more tokens than they have\n    require(token.balanceOf(address(this)) >= _amount);\n\n    // Transfer tokens to the receiver\n    token.transfer(receiver, _amount);  \n  } \n\n}\n",
  "sourcePath": "C:\\Users\\shahv\\Desktop\\VDrive\\src\\contracts\\EthSwap.sol",
  "compiler": {
    "name": "solc",
    "version": "0.5.16+commit.9c3226ce.Emscripten.clang"
  },
  "schemaVersion": "3.0.23",
  "updatedAt": "2021-08-13T08:01:08.486Z",
  "networkType": "ethereum",
  "devdoc": {
    "methods": {}
  },
  "userdoc": {
    "methods": {}
  }
}